:100000000C94F2030C9423040C9423040C94230406
:100010000C9423040C9423040C9423040C942304C4
:100020000C9423040C9423040C9423040C942304B4
:100030000C9423040C9423040C9423040C942304A4
:100040000C9423040C9423040C9423040C94230494
:100050000C9423040C9423040C9423040C94130890
:100060000C9423040C94060B0C94D20B0C942304D4
:100070000C9423040C9423040C9423040C94230464
:100080000C9423040C9423040C9423040C94230454
:100090000C94390B0C94110C0C9423040C94230431
:1000A0000C9423040C9423040C9423040C94230434
:1000B0000C9423040C9423040C9423040C94230424
:1000C0000C9423040C9423040C9423040C946C0BC4
:1000D0000C94500C0C9423040C949F0B0C948F0CD8
:1000E0000C942304D41ED71ECA1ECE1E0E1FDB1E68
:1000F000DF1EE51EE91EED1EF31EF71EFB1E0E1F82
:10010000011F051F091F0C944D170C9479110C94B5
:1001100013170C9476130C94EE110C9487170C940F
:1001200016090C94AA0A0C94CA160C94CA1E0C94B4
:10013000630A0C94D41E0C94C5170C94520A0C94A8
:10014000ED1E0C9432120C94F31E0C94F71E0C94BA
:10015000541C0C94E11A0C9478110C94DB1E0C9432
:10016000091F0C94DF1E0C94CF100C94A1120C9458
:10017000A9110C948C110C94951A0C94D71E0C9404
:10018000D91B0C94B6160C94051F0C94DD160C9418
:1001900077130C94C3150C94AB160C94A8110C9403
:1001A00098110C9417130C94E51E0C9483120C9464
:1001B000E91E0C94CE1E0C940E1F0C94530A0C9442
:1001C0007F0A0C94560D0C949F0A0C9480110C9489
:1001D000011F0C9416050C94FB1E00000000003E4D
:1001E0005B4F5B3E3E6B4F6B3E1C3E7C3E1C183CA7
:1001F0007E3C181C577D571C1C5E7F5E1C00183C03
:100200001800FFE7C3E7FF0018241800FFE7DBE74B
:10021000FF30483A060E2629792926407F05050732
:10022000407F05253F5A3CE73C5A7F3E1C1C08088E
:100230001C1C3E7F14227F22145F5F005F5F060953
:100240007F017F006689956A606060606094A2FFAC
:10025000A29408047E040810207E201008082A1C9E
:1002600008081C2A08081E101010100C1E0C1E0C6A
:1002700030383E3830060E3E0E060000000000000A
:10028000005F00000007000700147F147F14242A79
:100290007F2A12231308646236495620500008074B
:1002A0000300001C2241000041221C002A1C7F1C6C
:1002B0002A08083E0808008070300008080808086E
:1002C000000060600020100804023E5149453E00D5
:1002D000427F400072494949462141494D33181433
:1002E000127F1027454545393C4A49493141211182
:1002F00009073649494936464949291E0000140074
:100300000000403400000008142241141414141496
:10031000004122140802015909063E415D594E7CF4
:100320001211127C7F494949363E414141227F41A9
:1003300041413E7F494949417F090909013E414107
:1003400051737F0808087F00417F41002040413FF2
:10035000017F081422417F404040407F021C027F01
:100360007F0408107F3E4141413E7F090909063E56
:100370004151215E7F091929462649494932030125
:100380007F01033F4040403F1F2040201F3F403837
:10039000403F631408146303047804036159494D12
:1003A00043007F4141410204081020004141417F48
:1003B00004020102044040404040000307080020BE
:1003C000545478407F2844443838444444283844BE
:1003D00044287F385454541800087E090218A4A4F5
:1003E0009C787F0804047800447D40002040403D14
:1003F000007F1028440000417F40007C047804788E
:100400007C080404783844444438FC182424181820
:10041000242418FC7C08040408485454542404047C
:100420003F44243C4040207C1C2040201C3C403069
:10043000403C44281028444C9090907C4464544C98
:1004400044000836410000007700000041360800F3
:1004500002010204023C2623263C1EA1A161123A9D
:100460004040207A385454555921555579412254E9
:10047000547842215554784020545579400C1E52EE
:100480007212395555555939545454593955545493
:10049000580000457C410002457D420001457C40FA
:1004A0007D1211127DF0282528F07C54554500203E
:1004B00054547C547C0A097F4932494949323A44B0
:1004C00044443A324A4848303A4141217A3A42401B
:1004D0002078009DA0A07D3D4242423D3D404040ED
:1004E0003D3C24FF2424487E4943662B2FFC2F2BC0
:1004F000FF0929F620C0887E090320545479410061
:1005000000447D413048484A32384040227A007ADF
:100510000A0A727D0D19317D2629292F28262929BD
:10052000292630484D4020380808080808080808DF
:10053000382F10C8ACBA2F102834FA00007B000006
:1005400008142A142222142A14085500550055AA0A
:1005500055AA55AAFF55FF55FF000000FF001010D7
:1005600010FF00141414FF001010FF00FF1010F013
:1005700010F0141414FC001414F700FF0000FF0026
:10058000FF1414F404FC141417101F10101F101F74
:100590001414141F00101010F0000000001F1010A1
:1005A00010101F10101010F010000000FF1010109D
:1005B000101010101010FF10000000FF140000FFBA
:1005C00000FF00001F10170000FC04F414141710A3
:1005D000171414F404F40000FF00F7141414141496
:1005E0001414F700F7141414171410101F101F140C
:1005F0001414F4141010F010F000001F101F00006D
:10060000001F14000000FC140000F010F01010FF98
:1006100010FF141414FF141010101F00000000F03D
:1006200010FFFFFFFFFFF0F0F0F0F0FFFFFF000012
:10063000000000FFFF0F0F0F0F0F3844443844FC39
:100640004A4A4A347E02020606027E027E02635550
:100650004941633844443C04407E201E2006027E0B
:10066000020299A5E7A5991C2A492A1C4C7201721D
:100670004C304A4D4D303048784830BC625A463D87
:100680003E494949007E0101017E2A2A2A2A2A443C
:10069000445F444440514A444040444A5140000071
:1006A000FF0103E080FF000008086B6B083612367C
:1006B0002436060F090F060000181800000010105D
:1006C000003040FF0101001F01011E00191D17121B
:1006D000003C3C3C3C00000000000000090A02080D
:1006E0000B0C0D07060304010000000000000000D1
:1006F00000000000000000000000000000000000FA
:1007000000000000000011100F00000000000000B9
:1007100000000000000000000000000000000000D9
:100720000102102020080810204010204080020103
:1007300002010804020101020408102040808040E8
:1007400020100804020180040201804020100804E7
:100750000201080402010102040810204080010285
:10076000040810204080050505050705080808084D
:10077000020202020A0A0808040404040101010139
:100780000101010103030303030303030407070734
:100790000C0C0C0C0C0C0C0C0202020206060606D9
:1007A000060606060B0B0B0B0B0B0B0B00002200B7
:1007B000250028002B002E0031003400020100002B
:1007C000050108010B0100002100240027002A0078
:1007D0002D003000330001010000040107010A016F
:1007E0001605560D11241FBECFEFD1E2DEBFCDBFDF
:1007F00000E00CBF13E0A0E0B2E0EAEDF4E400E0BA
:100800000BBF02C007900D92AE32B107D9F726E0B8
:10081000AEE2B3E001C01D92A234B207E1F713E0EB
:10082000C2EFD3E000E006C021970109802FFE014E
:100830000E942622C03FD10780E00807A9F70E9446
:100840000E080C94AE1F0C940000AF92BF92CF9292
:10085000DF92EF92FF920F931F93CF93DF93CDB769
:10086000DEB7D2500FB6F894DEBF0FBECDBF8C01FD
:100870005B016C0197FF03C087E0C80ED11C93E0B9
:10088000D594C7949A95E1F70D2C000CEE08FF085B
:1008900099E0D90E9DE3E91EF11C9E012F5F3F4FA9
:1008A000B701A6018EE293E00E94BF10811107C03C
:1008B00061E072E080E094E00E947009EECFC80130
:1008C00068E070E00E94D121FC0186E0EE0FFF1F7E
:1008D0008A95E1F781E090E08C0F9D1FE80FF91FEA
:1008E00080E4D50101900D928A95E1F7DE5F0FB6A5
:1008F000F894DEBF0FBECDBFDF91CF911F910F9156
:10090000FF90EF90DF90CF90BF90AF900895AF929F
:10091000BF92CF92DF92EF92FF920F931F93CF93EC
:10092000DF93CDB7DEB7D2500FB6F894DEBF0FBE5F
:10093000CDBF8C015B016C0197FF03C087E0C80E3F
:10094000D11C23E0D594C7942A95E1F70D2C000C17
:10095000EE08FF0899E0D90E9DE3E91EF11C809195
:10096000810390918203A0918303B09184038C153D
:100970009D05AE05BF0591F19E012F5F3F4FB70169
:10098000A6018EE293E00E94BF10811107C061E0D2
:1009900072E080E094E00E947009EECFC80168E048
:1009A00070E00E94D121FC0196E0EE0FFF1F9A95A6
:1009B000E1F781E090E08C0F9D1FE80FF91F80E4C4
:1009C000D50101900D928A95E1F7C0928103D092F2
:1009D0008203E0928303F092840317C0C80168E0A9
:1009E00070E00E94D121FC0186E0EE0FFF1F8A9586
:1009F000E1F781E090E08C0F9D1FE80FF91F80E484
:100A0000D50101900D928A95E1F7DE5F0FB6F8945B
:100A1000DEBF0FBECDBFDF91CF911F910F91FF9031
:100A2000EF90DF90CF90BF90AF900895EF92FF923C
:100A30000F932FEF49E06AE08EE493E00E94DE1707
:100A40008CE2E82EFF24F39405E029E348E364E018
:100A50008AE393E00E941D1EEEE2F3E01582168207
:100A6000118613860F91FF90EF9008952F923F9279
:100A70004F925F926F927F928F929F92AF92BF92AE
:100A8000CF92DF92EF92FF920F931F93CF93DF935A
:100A9000CDB7DEB7C654D1090FB6F894DEBF0FBE8E
:100AA000CDBF8AE393E00E94C31C22962FAF22970A
:100AB00023963FAF239724964FAF249725965FAF99
:100AC000259726966FAF269727967FAF279727966D
:100AD0008EAD9FAD27970A978F3D934008F056C182
:100AE00025966EAD7FAD2597072E000C880B990BD0
:100AF0001F921F921F921F922FE3A22EBB24B3942A
:100B0000C12CD12C1CEAE12E13E0F12E00E010E004
:100B100028E730E040E050E00E94280E2B013C0125
:100B200023966EAD7FAD2397072E000C880B990B93
:100B30001F921F9221E02F932FE32F93A12CB12C12
:100B4000650118E9E12E13E0F12E00E010E026E93E
:100B500030E040E050E00E94280E4B015C014AE08A
:100B600050E0B20180E094E00E94340A60E280E04C
:100B700094E00E9455094AE050E0B40180E094E01E
:100B80000E943B0A64E670E080E090E00E948E08DC
:100B90000FB6F894DEBF0FBECDBF91E1491691E0CC
:100BA00059060CF4F3C028E7821691040CF06FC0CC
:100BB0000E945D082B013C01C12CD12CBE016F5F4E
:100BC0007F4FC6010E9425048FEFC81AD80A9AE207
:100BD000C91694E0D90691F70E945D086B01C4180C
:100BE000D508E12CF12C00E110E020E131E040E1FA
:100BF00050E060E070E08EE493E00E94871720E10F
:100C000031E040E450E060E070E08EE493E00E9468
:100C1000871740E150E060E070E08EE493E00E94CE
:100C200099164AE050E0B6018EE493E00E94340A3F
:100C300020918D0330918E03B9016F5F7F4F7093C8
:100C40008E0360938D0340918F0350919003C601F2
:100C5000840F951F9093900380938F030E94D1215E
:100C600070938C0360938B0362E272E08EE493E0F6
:100C70000E94700940E450E060E070E08EE493E090
:100C80000E94991660918B0370918C0373C028E7C2
:100C90008216910409F47AC00E945D082B013C0180
:100CA000C12CD12CBE016F5F7F4FC6010E9487040B
:100CB0008FEFC81AD80A9AE2C91694E0D90691F7BC
:100CC0000E945D086B01C418D508E12CF12C00E1ED
:100CD00010E020E131E040E750E060E070E08EE4B9
:100CE00093E00E94871720E131E040EA50E060E0A5
:100CF00070E08EE493E00E94871740E750E060E0E8
:100D000070E08EE493E00E9499164AE050E0B6014C
:100D10008EE493E00E94340A209187033091880387
:100D2000B9016F5F7F4F7093880360938703409191
:100D3000890350918A03C601840F951F90938A03FB
:100D4000809389030E94D121709386036093850369
:100D500062E272E08EE493E00E94700940EA50E0A3
:100D600060E070E08EE493E00E9499166091850344
:100D7000709186034AE050E08EE493E00E94340ACA
:100D800062E272E08EE493E00E947009CA5BDF4F7A
:100D90000FB6F894DEBF0FBECDBFDF91CF911F918C
:100DA0000F91FF90EF90DF90CF90BF90AF909F900A
:100DB0008F907F906F905F904F903F902F9008950D
:100DC000EF92FF920F931F930E94B40840E855E200
:100DD00060E070E080E094E00E94CE0C40E050E0E3
:100DE000BA018EE493E00E949F1860E070E08EE408
:100DF00093E00E94831263E08EE493E00E94951AD0
:100E0000E12C88EFF82E00EF10E020E330E040E026
:100E100050E060E171E08EE493E00E948717E12CDE
:100E2000F12C04E710E02CE230E042E050E062E117
:100E300071E08EE493E00E9487172CE230E04AE7ED
:100E400050E062E171E08EE493E00E9487174AE08F
:100E500050E061E271E08EE493E00E9499166FEF3A
:100E60007FEF8EE493E00E94A51663E08EE493E0AA
:100E70000E949F1663E58EE493E00E94820943E29C
:100E800050E061E271E08EE493E00E9499166CE418
:100E90008EE493E00E9482094CE350E061E271E04D
:100EA0008EE493E00E9499166FE48EE493E00E9432
:100EB000820945E550E061E271E08EE493E00E9432
:100EC000991667E58EE493E00E94820942E850E0BB
:100ED00061E271E08EE493E00E94991666E48EE48C
:100EE00093E00E9482094BE950E061E271E08EE4F8
:100EF00093E00E94991661E48EE493E00E948209D7
:100F000044EB50E061E271E08EE493E00E949916B8
:100F100063E58EE493E00E9482094DEC50E061E2CB
:100F200071E08EE493E00E94991664E58EE493E00C
:100F30000E94820940E050E060E070E08EE493E0BF
:100F40000E94991662E08EE493E00E949F1666E28A
:100F500072E08EE493E00E94700967E372E08EE431
:100F600093E00E94700963E472E08EE493E00E94D3
:100F7000700965E472E08EE493E00E94700967E313
:100F800072E08EE493E00E94700963E472E08EE404
:100F900093E00E94700963E572E08EE493E00E94A2
:100FA000700967E372E08EE493E00E94700963E4E5
:100FB00072E08EE493E00E94700964E672E08EE4D1
:100FC00093E00E94700967E372E08EE493E00E9470
:100FD000700963E472E08EE493E00E94700962E7B6
:100FE00072E080E094E00E94530946E061E08EE206
:100FF00093E00E943D0F811107C062EA72E080E039
:1010000094E00E947009FFCF69EC72E080E094E008
:101010001F910F91FF90EF900C9470090E94E006D1
:101020000E943605FDCF1F920F920FB60F9211242A
:101030002F933F938F939F93AF93BF93809192038E
:1010400090919303A0919403B091950330919103F3
:1010500023E0230F2D3720F40196A11DB11D05C0FB
:1010600026E8230F0296A11DB11D209391038093C2
:10107000920390939303A0939403B093950380916C
:10108000960390919703A0919803B09199030196CC
:10109000A11DB11D8093960390939703A09398038D
:1010A000B0939903BF91AF919F918F913F912F91F1
:1010B0000F900FBE0F901F9018952FB7F894609166
:1010C00092037091930380919403909195032FBFA5
:1010D00008953FB7F8948091960390919703A0915B
:1010E0009803B091990326B5A89B05C02F3F19F02E
:1010F0000196A11DB11D3FBFBA2FA92F982F882798
:10110000820F911DA11DB11DBC01CD0142E0660FF2
:10111000771F881F991F4A95D1F70895CF92DF92C4
:10112000EF92FF92CF93DF936B017C010E946908DD
:10113000EB01C114D104E104F10479F00E946908C3
:101140006C1B7D0B683E7340A0F381E0C81AD10888
:10115000E108F108C851DC4FECCFDF91CF91FF904F
:10116000EF90DF90CF900895789484B5826084BD2D
:1011700084B5816084BD85B5826085BD85B581609B
:1011800085BDEEE6F0E0808181608083E1E8F0E0FB
:101190001082808182608083808181608083E0E82A
:1011A000F0E0808181608083E1EBF0E08081846009
:1011B0008083E0EBF0E0808181608083E1E9F0E012
:1011C000808182608083808181608083E0E9F0E0BB
:1011D000808181608083E1EAF0E0808182608083A9
:1011E000808181608083E0EAF0E08081816080839B
:1011F000E1E2F1E080818260808380818160808390
:10120000E0E2F1E0808181608083EAE7F0E08081C4
:10121000846080838081826080838081816080831C
:101220008081806880831092C1000895CF92DF9200
:10123000EF92FF920F931F93CF93DF936C01EB011B
:101240007B01E40EF51E00E010E0CE15DF0561F035
:101250006991D601ED91FC910190F081E02DC601DC
:101260001995080F191FF1CFC801DF91CF911F9178
:101270000F91FF90EF90DF90CF9008956115710569
:1012800079F0FB0101900020E9F73197AF01461B8F
:10129000570BDC01ED91FC910280F381E02D199454
:1012A00080E090E008950C943E09DC01ED91FC9102
:1012B0000190F081E02D19940F931F93CF93DF934A
:1012C000EC016DE00E9455098C016AE0CE010E949C
:1012D0005509800F911FDF91CF911F910F910895B4
:1012E0000F931F93CF93DF93EC010E943E098C0173
:1012F000CE010E945C09800F911FDF91CF911F9159
:101300000F9108950F931F93CF93DF93EC010E94E9
:1013100055098C01CE010E945C09800F911FDF915D
:10132000CF911F910F9108958F929F92AF92BF928C
:10133000CF92DF92EF92FF920F931F93CF93DF93A1
:10134000CDB7DEB7A1970FB6F894DEBF0FBECDBF05
:101350006C01142FE52FCB01022F19A2223008F4C3
:101360000AE07E0121E2E20EF11C802E912CA12CDC
:10137000B12C612F7E2FA50194010E94E521029FCF
:101380001019112481E0E81AF1081A3014F4105DE4
:1013900001C0195CF7011083122FE32FCA01232B20
:1013A000242B252B31F7B701C6010E943E09A196D7
:1013B0000FB6F894DEBF0FBECDBFDF91CF911F9166
:1013C0000F91FF90EF90DF90CF90BF90AF909F90E4
:1013D0008F900895CF92DF92EF92FF920F931F9319
:1013E000CF93DF93EC016A017B012115310579F47C
:1013F000E881F9810190F081E02D642FDF91CF9198
:101400001F910F91FF90EF90DF90CF9019942A30A9
:101410003105E9F477FF1AC06DE20E9455098C018D
:1014200044275527BA014C195D096E097F092AE046
:10143000CE010E949409800F911FDF91CF911F91DF
:101440000F91FF90EF90DF90CF9008952AE0B701C1
:10145000A601CE01DF91CF911F910F91FF90EF90E8
:10146000DF90CF900C9494099A01AB01770F660B33
:10147000770B0C94EA090F931F93CF93DF93EC0142
:101480009A01AB01770F660B770B0E94EA098C017A
:10149000CE010E945C09800F911FDF91CF911F91B7
:1014A0000F9108950895FC0124853585F901E05CCC
:1014B000FF4F80819181329620813181821B930B75
:1014C0008F7399270895DC011C96ED91FC911D976F
:1014D000DF01A05CBF4F2D913C91119712968D9129
:1014E0009C9111972817390739F08D919C91E80F3D
:1014F000F91F808190E008958FEF9FEF0895FC0120
:10150000A485B585FD01E05CFF4F208131813296D5
:10151000808191812817390779F080819181A80F06
:10152000B91F8C91208131812F5F3F4F2F7333275B
:101530003183208390E008958FEF9FEF0895FC01A1
:1015400081A1882329F0A489B5898C9186FFFBCFDE
:1015500011A208950F931F93CF93DF93FC01A685EB
:10156000B7858D01005C1F4FE80188819981019644
:101570008F739927AD014E5B5F4FEA012881398156
:1015800082179307D1F3E80128813981A20FB31F95
:101590006C93A685B785A05CBF4F11969C938E93E4
:1015A000A689B7892C9181E090E0078C02C0880F52
:1015B000991F0A94E2F7822B8C9381E081A304881F
:1015C000F589E02D80818064808381E090E0DF9167
:1015D000CF911F910F910895FB01E05CFF4F208197
:1015E00031812F5F3F4F2F733327DB01AE5BBF4F3E
:1015F0004D915C912417350741F040815181DB0109
:10160000A40FB51F8C933183208308951F920F92EE
:101610000FB60F9211240BB60F922F933F934F9357
:101620005F936F937F938F939F93AF93BF93EF934A
:10163000FF938091C00082FD07C08091C6006EEFCD
:1016400075E00E94EC0A02C08091C600FF91EF9104
:10165000BF91AF919F918F917F916F915F914F91CA
:101660003F912F910F900BBE0F900FBE0F901F90C8
:1016700018951F920F920FB60F9211240BB60F926E
:101680002F933F934F935F936F937F938F939F938A
:10169000AF93BF93EF93FF938091C80082FD07C083
:1016A0008091CE0066E775E00E94EC0A02C080914E
:1016B000CE00FF91EF91BF91AF919F918F917F915C
:1016C0006F915F914F913F912F910F900BBE0F90B3
:1016D0000FBE0F901F9018951F920F920FB60F928A
:1016E00011240BB60F922F933F934F935F936F93F9
:1016F0007F938F939F93AF93BF93EF93FF938091CB
:10170000D00082FD07C08091D6006EEE74E00E948A
:10171000EC0A02C08091D600FF91EF91BF91AF918A
:101720009F918F917F916F915F914F913F912F91F9
:101730000F900BBE0F900FBE0F901F9018951F9229
:101740000F920FB60F9211240BB60F922F933F9367
:101750004F935F936F937F938F939F93AF93BF93B9
:10176000EF93FF938091300182FD07C08091360195
:1017700066E674E00E94EC0A02C080913601FF9197
:10178000EF91BF91AF919F918F917F916F915F91F9
:101790004F913F912F910F900BBE0F900FBE0F9066
:1017A0001F9018951F920F920FB60F9211240BB62F
:1017B0000F922F933F938F939F93EF93FF932091DB
:1017C000FA053091FB058091FC059091FD052817E5
:1017D000390731F48091C1008F7D8093C10014C01E
:1017E000E091FC05F091FD05E654FA4F20818091CF
:1017F000FC059091FD0501968F7399279093FD0547
:101800008093FC052093C600FF91EF919F918F91EB
:101810003F912F910F900BBE0F900FBE0F901F9016
:1018200018951F920F920FB60F9211240BB60F92BC
:101830002F933F938F939F93EF93FF932091720584
:1018400030917305809174059091750528173907BB
:1018500031F48091C9008F7D8093C90014C0E0915C
:101860007405F0917505EE5CFA4F20818091740546
:101870009091750501968F739927909375058093C4
:1018800074052093CE00FF91EF919F918F913F912E
:101890002F910F900BBE0F900FBE0F901F901895B9
:1018A0001F920F920FB60F9211240BB60F922F9327
:1018B0003F938F939F93EF93FF932091EA0430918E
:1018C000EB048091EC049091ED042817390731F472
:1018D0008091D1008F7D8093D10014C0E091EC0401
:1018E000F091ED04E655FB4F20818091EC0490913E
:1018F000ED0401968F7399279093ED048093EC0487
:101900002093D600FF91EF919F918F913F912F915E
:101910000F900BBE0F900FBE0F901F9018951F9247
:101920000F920FB60F9211240BB60F922F933F9385
:101930008F939F93EF93FF93209162043091630400
:1019400080916404909165042817390731F48091DF
:1019500031018F7D8093310114C0E0916404F091D6
:101960006504EE5DFB4F20818091640490916504D5
:1019700001968F7399279093650480936404209354
:101980003601FF91EF919F918F913F912F910F9091
:101990000BBE0F900FBE0F901F901895CF92DF9245
:1019A000EF92FF920F931F93CF93DF93EC016A01A5
:1019B0007B014115514E6105710509F1EC89FD89E5
:1019C00081E090E008A002C0880F991F0A94E2F716
:1019D000808360E079E08DE390E0A70196010E94AA
:1019E000E52189019A010150110921093109369532
:1019F000279517950795980101151041A8F0EC89D6
:101A0000FD89108260E874E88EE190E0A7019601FC
:101A10000E94E521DA01C9010197A109B109B69532
:101A2000A795979587959C01E889F9893083EA897C
:101A3000FB89208319A2EE89FF89408181E090E033
:101A40009C010C8C02C0220F331F0A94E2F7242B56
:101A50002083EE89FF8940819C010D8C02C0220FFA
:101A6000331F0A94E2F7242B2083EE89FF894081FB
:101A70009C010E8C02C0220F331F0A94E2F7242B24
:101A80002083EE89FF8920810F8C02C0880F991F67
:101A90000A94E2F7809582238083DF91CF911F9192
:101AA0000F91FF90EF90DF90CF900895CF92DF924B
:101AB000EF92FF92E0E0F4E01382128288EEC82EEB
:101AC00083E0D82EE12CF12CC482D582E682F78205
:101AD00061ED72E0718360838EEF95E09587848776
:101AE0008AEB95E09787868785EC90E0918B808BD9
:101AF00084EC90E0938B828B80EC90E0958B848BD0
:101B000081EC90E0978B868B82EC90E0918F808FB8
:101B100086EC90E0938F828F44E0448F33E0358FE2
:101B200027E0268F95E0978F81E080A3EEEDF3E02C
:101B300013821282C482D582E682F7827183608327
:101B4000A6E7B5E0B587A487A2E3B5E0B787A68787
:101B5000ADECB0E0B18BA08BACECB0E0B38BA28B62
:101B6000A8ECB0E0B58BA48BA9ECB0E0B78BA68B4A
:101B7000AAECB0E0B18FA08FAEECB0E0B38FA28F33
:101B8000448F358F268F978F80A3ECEBF3E0138281
:101B90001282C482D582E682F78271836083AEEEC0
:101BA000B4E0B587A487AAEAB4E0B787A687A5ED15
:101BB000B0E0B18BA08BA4EDB0E0B38BA28BA0ED15
:101BC000B0E0B58BA48BA1EDB0E0B78BA68BA2EDF6
:101BD000B0E0B18FA08FA6EDB0E0B38FA28F448F9D
:101BE000358F268F978F80A3EAE9F3E01382128264
:101BF000C482D582E682F7827183608366E674E0F0
:101C00007587648762E274E07787668765E371E0D1
:101C1000718B608B64E371E0738B628B60E371E0C6
:101C2000758B648B61E371E0778B668B62E371E0A7
:101C3000718F608F66E371E0738F628F448F358F91
:101C4000268F978F80A3FF90EF90DF90CF9008951D
:101C50004F925F926F927F92AF92BF92CF92DF923C
:101C6000EF92FF920F931F93CF93DF93CDB7DEB721
:101C700029013A019B01AC0124193509460957098C
:101C80008A899B89AC89BD89BC01CD016A197B0910
:101C90008C099D090E94C121A801970124193509C9
:101CA000460957090E940722CA01B9016A0D7B1D26
:101CB0008C1D9D1DDF91CF911F910F91FF90EF9093
:101CC000DF90CF90BF90AF907F906F905F904F90DC
:101CD00008958EBD0DB407FEFDCF08958FEF0E94CD
:101CE000690E8EB5089561E0FC0184810C944B1F50
:101CF00060E0FC0184810C944B1FCF93DF93FC01C7
:101D000086818823D1F08FEF8EBD4FEF878190853C
:101D10009C012F5F3F4F308727838130924028F40A
:101D20000DB407FEFDCF4EBDF1CF0DB407FEFDCFC4
:101D3000EF01CF010E94730E1E82DF91CF910895B3
:101D4000673028F026E1FC01258380E008958DB5F9
:101D500060FD02C0663011F48E7F01C081608DBDD0
:101D60008CB58C7F8CBD9CB562FD02C080E001C04B
:101D700082E066956170692B862B8CBD81E00895A9
:101D80000F931F93CF93DF93EB010E945D088B01AC
:101D90000E946E0E8F3F49F00E945D08601B710B20
:101DA0006C177D07A8F380E001C081E0DF91CF913F
:101DB0001F910F910895CF92DF92FF920F931F937F
:101DC000CF93DF9300D01F92CDB7DEB76C01F62E14
:101DD00029833A834B835C830E947D0EC6010E9457
:101DE000780E6CE271E0C6010E94C00E8F2D8064F7
:101DF0000E94690E08E110E05C814B813A812981E3
:101E0000DA01C901002E04C0B695A795979587956C
:101E10000A94D2F729833A834B835C830E94690E2C
:101E20000850110929813A814B815C81083F8FEF6D
:101E3000180731F7FF2029F0E8E0FE1204C087E818
:101E400003C085E901C08FEF0E94690E10E00E9477
:101E50006E0EF601828787FF04C01F3F11F01F5FDF
:101E6000F6CF0F900F900F900F90DF91CF911F91B1
:101E70000F91FF90DF90CF9008958F929F92AF9235
:101E8000BF92EF92FF920F931F93CF93DF93EC01DA
:101E9000E62E1B8619861E821D824C830E945D08D9
:101EA0008B0161E08C810E940F1FCE010E94730E96
:101EB00060E082E30E940F1F61E083E30E940F1F36
:101EC00061E084E30E940F1F61E085E30E940F1F21
:101ED00061E085E30E944B1F83E58CBD8DB58E7F4D
:101EE0008DBD2AE0F22E8FEF0E94690EFA94F11058
:101EF000FACFCE010E94780E20E030E0A90160E028
:101F0000CE010E94DB0EF82E8A8781E0F81649F098
:101F10000E945D08601B710B613D774068F381E0B2
:101F20004CC02AEA31E040E050E068E0CE010E9477
:101F3000DB0E82FF02C0FB860EC094E0F92E0E94E9
:101F40006E0E8A87FA94F110FACF8A3A11F082E085
:101F500034C082E08B878B85823021F0812C912CDC
:101F6000540105C0812C912CA12C80E4B82E20E0D6
:101F700030E0A90167E3CE010E94DB0EA5019401C8
:101F800069E2CE010E94DB0E8A87882349F00E9415
:101F90005D08601B710B613D774048F388E00DC020
:101FA0008B85823039F520E030E0A9016AE3CE016B
:101FB0000E94DB0E882389F086E08D83CE010E948B
:101FC000730E80E0DF91CF911F910F91FF90EF9002
:101FD000BF90AF909F908F9008950E946E0E807C6E
:101FE000803C11F483E08B870E946E0E0E946E0E7F
:101FF0000E946E0ECE010E94730E6E2DCE01DF91F7
:10200000CF911F910F91FF90EF90BF90AF909F9055
:102010008F900C94A00E0F931F93CF93DF93EC013E
:102020000E945D088B010E946E0E8A878F3F49F4E3
:102030000E945D08601B710B6D327140A0F38FE050
:1020400003C08E3F39F08DE08D83CE010E94730E68
:1020500080E001C081E0DF91CF911F910F91089541
:10206000CF92DF92EF92FF920F931F93CF93DF9364
:10207000EC016901C801820F931F8130924008F082
:102080006FC08E81882371F088819981AA81BB817C
:10209000481759076A077B0729F48F819885C81666
:1020A000D90618F5488359836A837B838B858330EF
:1020B00039F089E0440F551F661F771F8A95D1F7C5
:1020C0009A01AB0161E1CE010E94DB0E882319F079
:1020D00083E08D8345C0CE010E940B10882309F454
:1020E0003FC018861F8281E08E838FEF8EBD2FEF59
:1020F0008F8198858C159D0550F40DB407FEFDCF9A
:102100002EBD8F819885019698878F83F1CFC80166
:102110000197F7014FEF9F012E193F092817390743
:1021200038F40DB407FEFDCF2EB521934EBDF3CF8D
:102130000DB407FEFDCF2EB5F701E80FF91F208380
:102140008F819885080F191F18870F838985882329
:1021500019F00115124048F0CE010E947D0E05C015
:10216000CE010E94730E80E001C081E0DF91CF912B
:102170001F910F91FF90EF90DF90CF900895EF9215
:10218000FF920F931F93790100E012E020E030E00E
:102190000E9430101F910F91FF90EF9008952F92A1
:1021A0003F924F925F926F927F928F929F92AF92E7
:1021B000BF92CF92DF92EF92FF920F931F93CF9334
:1021C000DF9300D0CDB7DEB74C017B836A836A0111
:1021D000590117019801241B350B37FF03C03195B6
:1021E00021953109C5014A815B81841B950B97FFBD
:1021F00003C091958195910951E059838217930706
:1022000014F019820BC09A2D8B2D5801092F182F0D
:102210009A818B81DB82CA82C92ED82E8A819B81CA
:10222000A816B9065CF49C2D8D2D6801092F182F76
:102230009A818B81BB82AA82A92EB82E2501AA8100
:10224000BB814A1A5B0A38016C187D0877FE03C00F
:10225000719461947108720157FE03C0BFEFEB1ACD
:10226000FB0AF594E794C016D1061CF00FEF1FEFA0
:102270001FC001E010E01CC0D401ED91FC91B981B8
:102280000084F185E02D9101BB23C1F04A815B817F
:10229000B601C4011995E618F708F7FE04C0C00E90
:1022A000D11EE40CF51CEA81FB813196FB83EA83A5
:1022B0004A815B81A416B506FCF604C0A6016A81BA
:1022C0007B81E7CF0F900F900F90DF91CF911F91FF
:1022D0000F91FF90EF90DF90CF90BF90AF909F90C5
:1022E0008F907F906F905F904F903F902F900895C8
:1022F0000895DC01ED91FC910480F581E02D1994A5
:102300000F931F93DC01ED91FC91008CF18DE02D7A
:1023100019951F910F9108950F931F93DC01ED9173
:10232000FC91028CF38DE02D19951F910F9108956A
:10233000EF92FF920F931F93DC01ED91FC91048CBF
:10234000F58DE02D19951F910F91FF90EF90089555
:102350000895AF92BF92CF92DF92EF92FF920F93C8
:102360001F93CF93DF9300D01F92CDB7DEB75C01F0
:102370006901DC01ED91FC910680F781E02D4B8332
:102380005C8369837A831995D501ED91FC914B812A
:102390005C81C40ED51EB1E0CB1AD1080088F1894A
:1023A000E02D7801860169817A819B01C50119952B
:1023B000D501ED91FC910288F389E02DC5010F90C4
:1023C0000F900F900F90DF91CF911F910F91FF9081
:1023D000EF90DF90CF90BF90AF901994AF92BF92E3
:1023E000CF92DF92EF92FF920F931F93CF93DF93E1
:1023F00000D01F92CDB7DEB75C016901DC01ED9121
:10240000FC910680F781E02D4B835C8369837A839E
:102410001995D501ED91FC9169817A819B012C0D73
:102420003D1D215031090088F189E02D78014B8153
:102430005C818A01C5011995D501ED91FC91028855
:10244000F389E02DC5010F900F900F900F90DF9151
:10245000CF911F910F91FF90EF90DF90CF90BF90A1
:10246000AF9019944F925F926F927F928F929F924A
:10247000AF92BF92CF92DF92EF92FF920F931F9392
:10248000CF93DF931F921F92CDB7DEB76C015A0135
:1024900039014801DC01ED91FC910680F781E02DC6
:1024A00069837A8319956981462E7A81572E640C47
:1024B000751CD601ED91FC91461457046CF404840C
:1024C000F585E02D87019401A501B201C60119959A
:1024D000BFEF4B1A5B0AEDCF0288F389E02DC601EE
:1024E0000F900F90DF91CF911F910F91FF90EF9080
:1024F000DF90CF90BF90AF909F908F907F906F9024
:102500005F904F901994EF92FF920F931F93DC010D
:10251000ED91FC9111971A960D911C911B971896AD
:102520002D913C911997048CF58DE02D7B0140E0B5
:1025300050E060E070E019951F910F91FF90EF90CF
:102540000895CF92DF92EF92FF920F931F93CF9354
:10255000DF9300D000D0CDB7DEB76C01DC01ED9188
:10256000FC916217730789F4041715072CF4942F54
:10257000852FA801092F182F041B150B98012F5F19
:102580003F4F008CF18DE02D12C04017510709F527
:10259000261737072CF4962F872FB901292F382FAC
:1025A000261B370B2F5F3F4F028CF38DE02D8701E9
:1025B000C601199526960FB6F894DEBF0FBECDBFA3
:1025C000DF91CF911F910F91FF90EF90DF90CF900F
:1025D00008950680F781E02D2D833E834B835C8335
:1025E00069837A831995D601ED91FC910088F18970
:1025F000E02D2D813E814B815C8169817A81C6010C
:102600001995D601ED91FC910288F389E02DC60160
:1026100026960FB6F894DEBF0FBECDBFDF91CF91E7
:102620001F910F91FF90EF90DF90CF9019946F92D0
:102630007F928F929F92AF92BF92CF92DF92EF9252
:10264000FF920F931F93CF93DF93EC014B015A013D
:1026500069013801E881F9810680F781E02D19953B
:10266000E881F9810684F785E02D87019601A501AF
:10267000B401CE011995E881F981A501460D571DD8
:10268000415051090684F785E02D9601B401CE0131
:102690001995E881F9810484F585E02D9301A50160
:1026A000B401CE011995E881F981C80CD91CB60195
:1026B000615071090484F585E02D9301A501CE01D7
:1026C0001995E881F9810288F389E02DCE01DF9127
:1026D000CF911F910F91FF90EF90DF90CF90BF901F
:1026E000AF909F908F907F906F9019940895FC0108
:1026F0006370658B8481958126813781613039F0E3
:10270000633029F091878087338722870895318746
:102710002087938782870895FC011382128281EEBD
:1027200092E09183808375836483578346837187A6
:10273000608753874287158A158614861786168602
:1027400081E0848B2FEF3FEF338B228B318B208BFB
:10275000868B178A118E108E08952F923F924F927A
:102760005F926F927F928F929F92AF92BF92CF9221
:10277000DF92EF92FF920F931F93CF93DF93CDB72A
:10278000DEB76C970FB6F894DEBF0FBECDBF9C8F3F
:102790008B8F5B011A011F830E833701C982DC0115
:1027A00058964D915C9159974115510509F0E5C036
:1027B00018968D919C911997681779070CF0CAC1EA
:1027C0001A968D919C911B97281639060CF0C2C160
:1027D0008C2C912CFB0136E0C39EE00DF11D1124E1
:1027E000FB87EA871E161F060CF0B4C1C40133E054
:1027F000880F991F3A95E1F79D878C87820D931D6D
:10280000181619060CF0A6C157968C91811103C0B9
:10281000203B08F02F5FAB8DBC8DED91FC911197A3
:102820000680F781E02DCD012A8F19952A8DB5E01C
:102830002B9F90011124F5013596FF87EE87250126
:10284000BB82AA82A9014A195B09598B488BC10135
:1028500008969B8B8A8BE889F989E40DF51DE65271
:10286000FE4F949198873D822C826101A885A0FF3C
:1028700013C0AB8DBC8DED91FC91B981B13031F4B9
:102880000084F185E02D2E813F8116C00284F385FE
:10289000E02DEE80FF801AC0EE81FF816E167F066C
:1028A000F1F0AB8DBC8DED91FC91B981B13051F45B
:1028B0000084F185E02D9301A601B2018B8D9C8DE2
:1028C00019950DC00284F385E02D730184019401F4
:1028D0004C815D816A817B818B8D9C8D1995E8850A
:1028E000E695E8872C813D81280D391D3D832C8399
:1028F0003FEFC31AD30A4A895B89C416D50609F08B
:10290000B5CF8A819B81880D991D9B838A839FEF18
:10291000491A590AAE85BF854A165B0609F09BCF56
:10292000EE81FF816E167F0609F4F2C0EB8DFC8DFF
:10293000A081B181F981F13079F4B5016B5F7F4FEE
:102940001C96ED91FC911D97830128E030E0A101D8
:102950008B8D9C8D1995DCC06A857B8568197909FA
:102960001A96ED91FC911B9773010C851D859401BE
:10297000A1018B8D9C8D1995CBC0FA013496949151
:10298000329765917491291BCB01B7E02B9F800D85
:10299000911D1124FA01259134913B8B2A8BFC0166
:1029A000459154915B834A83FC013296C4903196E1
:1029B00054915C87329614913196D49089818230FB
:1029C00058F0612E012E000C7708AD2D0D2C000C57
:1029D000BB0BB987A88704C019861886612C712C97
:1029E000AB8DBC8DED91FC9111970680F781E02DA8
:1029F000CD011995B9818B2E912C689CC001699CE1
:102A0000900D789C900D1124FC01EA0DFB1DF98BB3
:102A1000E88B1C82712C612CE12F110FFF0B9501AB
:102A20002E0F3F1F3B872A87AC0CB11CA5014E0F10
:102A30005F1F5F8B4E8BC1018D0D911DD7FC9A9549
:102A4000998F888F4C85641608F062C0862D90E0BF
:102A500048855985480F591F489D9001499D300D63
:102A6000589D300D1124D901A20DB31DBF87AE872B
:102A7000AA84BB8448885988DC80BA85DB1AE88D33
:102A8000F98DE80FF91FFD8BEC8B8D2D8A0D2E89AA
:102A90003F89A216B306B9F1877061F48A819B81E0
:102AA0000196EA89FB89AA81BB81EA0FFB1F74901A
:102AB0009B838A8377FE20C0AB8DBC8DED91FC910A
:102AC000B981B13061F40084F185E02D2E813F8120
:102AD0004C895D89B5018B8D9C8D19950DC0028443
:102AE000F385E02DEE80FF80840194014E855F85A3
:102AF000B2018B8D9C8D1995770C480C591CEFEF0A
:102B0000AE1ABE0AC2CF3C813C0D3C8363949ACF7F
:102B1000AB8DBC8DED91FC9111970288F389E02D6E
:102B2000CD016C960FB6F894DEBF0FBECDBFDF911E
:102B3000CF911F910F91FF90EF90DF90CF90BF90BA
:102B4000AF909F908F907F906F905F904F903F904D
:102B50002F9019946C960FB6F894DEBF0FBECDBFC0
:102B6000DF91CF911F910F91FF90EF90DF90CF9069
:102B7000BF90AF909F908F907F906F905F904F909D
:102B80003F902F900895AF92BF92CF92EF92FF9215
:102B90000F931F93CF93DF93EC01262F888D998D90
:102BA000009709F040C06A3059F41D861C862C89B4
:102BB0008E859F8538E0239F800D911D112441C093
:102BC0006D3009F4AAC08E898823C1F03C898C85B8
:102BD0009D8546E0349F800D911D112448855985BF
:102BE000481759075CF41D861C868E859F8548E032
:102BF000349F800D911D11249F878E87EA88FB8862
:102C0000088919894E855F856C857D85CC88CE01C4
:102C10000E94AD132C898C859D8536E0239F800D05
:102C2000911D112442C06A3079F41D861C862C89BE
:102C3000FC013696E4918E859F852E9F800D911D17
:102C400011249F878E8769C06D3009F466C0FC012E
:102C500034963491631708F460C03196E491E61716
:102C600008F45BC0FC013296A590B490462F50E06A
:102C7000431B510937E0349FB001359F700D11247B
:102C8000A60EB71EF501329634913196E4913323A6
:102C900011F0E1110DC0F5013496E4912C898C8579
:102CA0009D85E29F800D911D11249D878C8735C0E5
:102CB000F501359644915E89552311F16C89E32F16
:102CC000F0E0E40FF11D47FDFA956E9FD0016F9F74
:102CD000B00D11244C855D854A0F5B1FE885F98591
:102CE000E417F5076CF41D861C86FC013696E4910A
:102CF0008E859F856E9F800D911D11249F878E87E5
:102D0000EA88FB88088919894E855F856C857D85F1
:102D1000CC88CE010E94AD13BECF81E090E0DF9160
:102D2000CF911F910F91FF90EF90CF90BF90AF90F8
:102D30000895FC0175876487578746870895611158
:102D400001C061E0FC01648B0895FC01738B628B10
:102D5000718B608B0895DC019C96ED91FC919D97A1
:102D60009081D1968C91892B80830895EF92FF9268
:102D70000F931F93DC01ED91FC910284F385E02D0C
:102D80007801890121E030E019951F910F91FF90A2
:102D9000EF900895EF92FF920F931F93DC01ED9156
:102DA000FC910284F385E02D780101E010E0199593
:102DB0001F910F91FF90EF9008950F931F93CF9362
:102DC000DF9300D000D0CDB7DEB78C01DC01ED91F0
:102DD000FC910680F781E02D2D833E834B835C833D
:102DE00069837A831995D801ED91FC910084F1856E
:102DF000E02D2D813E814B815C8169817A81C80102
:102E00001995D801ED91FC910288F389E02DC80154
:102E100026960FB6F894DEBF0FBECDBFDF91CF91DF
:102E20001F910F911994EF92FF920F931F93CF93DD
:102E3000DF9300D000D0CDB7DEB77C01DC01ED918F
:102E4000FC910680F781E02D2D833E834B835C83CC
:102E500069837A831995D701ED91FC910484F585F6
:102E6000E02D2D813E814B815C8169817A81C70192
:102E70001995D701ED91FC910288F389E02DC701E6
:102E800026960FB6F894DEBF0FBECDBFDF91CF916F
:102E90001F910F91FF90EF901994EF92FF920F9373
:102EA0001F93CF93DF9300D000D0CDB7DEB77C0166
:102EB000DC01ED91FC910680F781E02D2D833E83AE
:102EC0004B835C8369837A831995D701ED91FC91DB
:102ED0000684F785E02D2D813E814B815C816981DF
:102EE0007A81C7011995D701ED91FC910288F38988
:102EF000E02DC70126960FB6F894DEBF0FBECDBFFA
:102F0000DF91CF911F910F91FF90EF901994CF9285
:102F1000DF92EF92FF920F931F93CF93DF9300D036
:102F200000D0CDB7DEB76C01DC01ED91FC910680DD
:102F3000F781E02D2D833E834B835C8369837A8305
:102F40001995D601ED91FC910284F385E02D2D8138
:102F50003E814B815C8169817A81C6011995D601D8
:102F6000ED91FC910288F389E02DC60126960FB6FB
:102F7000F894DEBF0FBECDBFDF91CF911F910F91AF
:102F8000FF90EF90DF90CF901994CF93DF93EC01F7
:102F900089A187FF09C084E00E949F1F81E00E94F1
:102FA000911F80E00E949A1FECA5FDA5908189A940
:102FB000809589238083DF91CF910895EF92FF92CE
:102FC0000F931F93CF93DF931F92CDB7DEB77C0192
:102FD000062F142F40E451E060EF70E029830E9437
:102FE0008C1389E093E0D70111969C938E935E96A3
:102FF0000C935E975F961C935F97298190962C9314
:1030000090978FEF91968C93919792968C9392973D
:1030100093968C939397F701128E138E148E158EC0
:10302000602F000F770BFB01EA59F84F8491E82FCE
:10303000F0E0EE0FFF1FE455F84F859194919D96B7
:103040009C938E939C97FB01E05EF84FE491D196A0
:10305000EC93D197412F110F550BFA01EA59F84F14
:10306000E491F0E0EE0FFF1FE455F84F8591949145
:10307000F70193A782A7FA01E05EF84FE491D29698
:10308000EC93D29799961C921E929897D0961C9288
:10309000D09795961C921E9294979E961C929E97FE
:1030A00097961C921E9296979F961C920F90DF9176
:1030B000CF911F910F91FF90EF900895FC0181A196
:1030C00087FF05C06EBD0DB407FEFDCF089528E053
:1030D00030E090E8A4A1B5A186A5492F462319F0B8
:1030E0004C91842B03C04C91809584238C93A0A594
:1030F000B1A54C9180A9809584238C93A0A5B1A5FE
:103100004C9180A9842B8C9396952150310911F70D
:103110000895CF93DF93EC01EAA5FBA590818AA9DE
:10312000809589238083CE010E945E18EAA5FBA5C5
:1031300090818AA9892B8083DF91CF910895CF93C5
:10314000DF93EC01411551056105710521F440E063
:1031500052E16AE770E04A8F5B8F6C8F7D8F61E090
:103160008F8D0E940F1F60E08F8D0E944B1F61E0CA
:103170008E8D0E940F1F61E08E8D0E944B1F89A1D2
:1031800087FD16C061E08AA10E940F1F60E08AA13E
:103190000E944B1F61E089A10E940F1F61E089A17D
:1031A0000E944B1F8BA187FD03C060E00E940F1F90
:1031B00089A187FD0E947B1F88A187FD21C061E056
:1031C0000E940F1F61E088A10E944B1F64E670E01F
:1031D00080E090E00E948E0860E088A10E944B1F72
:1031E00064E670E080E090E00E948E0861E088A1D3
:1031F0000E944B1F68EC70E080E090E00E948E0817
:10320000E881F9810680F781E02DCE0119956FEEF6
:10321000CE010E94891863E0CE010E945E1860E82A
:10322000CE010E945E1862E0CE010E945E186FEC33
:10323000CE010E94891860E0CE010E945E1861EC08
:10324000CE010E945E1860E3CE010E945E186DEE12
:10325000CE010E94891864E6CE010E945E1863E0E8
:10326000CE010E945E1862E1CE010E945E1861E804
:10327000CE010E945E1868EECE010E94891865E8B2
:10328000CE010E945E1860E0CE010E945E1868E7E1
:10329000CE010E945E186BECCE010E94891869E392
:1032A000CE010E945E186CE2CE010E945E1860E0C2
:1032B000CE010E945E1864E3CE010E945E1862E0B7
:1032C000CE010E945E1867EFCE010E94891860E26D
:1032D000CE010E945E186AEECE010E94891860E05D
:1032E000CE010E945E1860E0CE010E945E1860EC84
:1032F000CE010E94891863E2CE010E945E1861EC43
:10330000CE010E94891860E1CE010E945E1865EC32
:10331000CE010E9489186EE3CE010E945E1868E219
:10332000CE010E945E1867ECCE010E94891866E803
:10333000CE010E945E1866E3CE010E94891868E4FF
:10334000CE010E945E1867E3CE010E94891889A110
:1033500087FF09C01EBC0DB407FEFDCF1EBC0DB417
:1033600007FEFDCF08C060E0CE010E945E1860E05D
:10337000CE010E945E186AE3CE010E94891865E5BD
:10338000CE010E945E1861EBCE010E94891860E0B8
:10339000CE010E945E1868E1CE010E945E1866EBC5
:1033A000CE010E94891868E0CE010E945E1862E892
:1033B000CE010E945E1867E2CE010E945E1862EFA5
:1033C000CE010E94891860E0CE010E945E1866E27C
:1033D000CE010E94891861E0CE010E945E1860EE65
:1033E000CE010E9489186FE0CE010E945E1861E351
:1033F000CE010E945E186BE2CE010E945E186CE066
:10340000CE010E945E186EE0CE010E945E1868E058
:10341000CE010E945E186EE4CE010E945E1861EF3C
:10342000CE010E945E1867E3CE010E945E1867E03D
:10343000CE010E945E1860E1CE010E945E1863E03A
:10344000CE010E945E186EE0CE010E945E1869E017
:10345000CE010E945E1860E0CE010E945E1861EE0F
:10346000CE010E94891860E0CE010E945E186EE0D5
:10347000CE010E945E1864E1CE010E945E1863E0F6
:10348000CE010E945E1861E1CE010E945E1867E0E5
:10349000CE010E945E1861E3CE010E945E1861ECCD
:1034A000CE010E945E1868E4CE010E945E1868E0BA
:1034B000CE010E945E186FE0CE010E945E186CE0A3
:1034C000CE010E945E1861E3CE010E945E1866E3A1
:1034D000CE010E945E186FE0CE010E945E1861E18D
:1034E000CE010E94891868E770E080E090E00E94B9
:1034F0008E0869E2CE010E94891868E770E080E0DA
:1035000090E00E948E08E881F9810288F389E02D1D
:10351000CE01199580EF90E09987888780E491E04B
:103520009B878A87DF91CF9108951F93CF93DF9375
:10353000EC0163706D8B6230C1F0633001F161307A
:1035400051F080EF90E09987888780E491E09B8735
:103550008A8718E41DC080E491E09987888780EF0E
:1035600090E09B878A8718E213C080EF90E09987EC
:10357000888780E491E09B878A8718E809C080E407
:1035800091E09987888780EF90E09B878A8718EE83
:10359000E881F9810680F781E02DCE01199566E377
:1035A000CE010E948918612FCE010E945E18E88129
:1035B000F9810288F389E02DCE01DF91CF911F912F
:1035C00019940F931F93CF93DF931F92CDB7DEB75C
:1035D0008C01DC01ED91FC910680F781E02D69837F
:1035E00019956981611102C060E201C061E2C80100
:1035F0000E948918D801ED91FC910288F389E02D91
:10360000C8010F90DF91CF911F910F9119948F9264
:103610009F92AF92BF92CF92DF92EF92FF920F9361
:103620001F93CF93DF93EC01490181E0881A910841
:10363000860E971EC401A0E0B0E04B01A12CB12C76
:10364000540199248824882A992AAA2ABB2A680125
:1036500081E0C81AD108C40ED51EC601A0E0B0E0B2
:103660006A01E12CF12C7601DD24CC24C82AD92A68
:10367000EA2AFB2A6AE2CE010E94891829A16B2D51
:1036800077278827992727FF18C06EBD0DB407FE3E
:10369000FDCFC501AA27BB278EBD0DB407FEFDCF08
:1036A000BB27AB2D9A2D892D8EBD0DB407FEFDCF06
:1036B0008EBC0DB407FEFDCF14C0CE010E945E1873
:1036C000B50188279927CE010E945E1899278B2D76
:1036D0007A2D692DCE010E945E18682DCE010E94C0
:1036E0005E186BE2CE010E94891829A16F2D772701
:1036F0008827992727FF18C06EBD0DB407FEFDCFA0
:10370000C701AA27BB278EBD0DB407FEFDCFBB277F
:10371000AF2D9E2D8D2D8EBD0DB407FEFDCFCEBCE1
:103720000DB407FEFDCF14C0CE010E945E18B70194
:1037300088279927CE010E945E1899278F2D7E2D0C
:103740006D2DCE010E945E186C2DCE010E945E1878
:103750006CE2CE01DF91CF911F910F91FF90EF901E
:10376000DF90CF90BF90AF909F908F900C9489186E
:103770001F93CF93DF93262FFC0131A137FF09C0A0
:103780007EBD0DB407FEFDCF2EBD0DB407FEFDCFEF
:103790000CC0672F122FEC010E945E18612FCE0122
:1037A000DF91CF911F910C945E18DF91CF911F9103
:1037B0000895EF92FF920F931F93CF93DF9377FDBE
:1037C00023C0DC011896ED91FC9119976E177F07C5
:1037D000DCF457FD19C01A96ED91FC911B974E171A
:1037E0005F0794F47901EC0101E010E021E030E0A2
:1037F0000E94071BB701CE01DF91CF911F910F915E
:10380000FF90EF900C94B81BDF91CF911F910F9117
:10381000FF90EF900895EF92FF921F93CF93DF9365
:1038200000D01F921F92CDB7DEB77C01162FFC018E
:1038300081A187FF12C0211531054105510549F1CC
:103840007EBD0DB407FEFDCF1EBD0DB407FEFDCF3E
:103850002150310941095109EECF211531054105AA
:103860005105B9F0672FC70129833A834B835C83E5
:103870007D830E945E18612FC7010E945E18298116
:103880003A814B815C8121503109410951097D8187
:10389000E4CF0F900F900F900F900F90DF91CF918A
:1038A0001F91FF90EF9008958F929F92AF92BF92D9
:1038B000CF92DF92EF92FF920F931F93CF93DF93FC
:1038C0005C01FB01E9014701DC0118962D913C9157
:1038D0001997621773070CF049C01A968D919C9145
:1038E0001B97481759070CF041C06B01CC0EDD1E29
:1038F000D60111977A01E00EF11EB70161507109EE
:10390000B7FD34C077FD32C0F7FF03C0E601E0E049
:10391000F0E057FF03C0870140E050E0A217B30773
:103920001CF0E901CE1BDF0B681779071CF08C0136
:10393000041B150B9E01D8010E942E226B017C01F5
:10394000BF01C5010E94071BA7019601B401C50173
:10395000DF91CF911F910F91FF90EF90DF90CF906B
:10396000BF90AF909F908F900C940B1CDF91CF91E4
:103970001F910F91FF90EF90DF90CF90BF90AF908D
:103980009F908F9008954F925F926F927F929F9237
:10399000AF92BF92CF92DF92EF92FF920F931F935D
:1039A000CF93DF9300D000D0CDB7DEB78C0160E0BD
:1039B000DC0112968C910E940F1F60E0F801838158
:1039C0000E940F1F61E0D80115968C910E940F1F75
:1039D00061E0F80184810E940F1FD80150968C91FC
:1039E00050971896ED91FC9119979081892B8083BF
:1039F00051969C9151971C96ED91FC911D97808159
:103A0000282F30E0892F90E0809590958223932392
:103A1000808312968C910E94981E7C01F80182810D
:103A20000E94981E9701281B390B2C5F3F4F2930AD
:103A3000310548F4A701480F591FCA01959587958C
:103A40009924939401C0912C2FEF33E07901E81A67
:103A5000F90A60E0D80115968C910E940F1F60E072
:103A6000F80184810E940F1F61E0D80112968C91A9
:103A70000E940F1F61E0F80183810E940F1FD8018F
:103A800053969C9153971E96ED91FC911F978081C0
:103A9000282F30E0892F90E0809590958223932302
:103AA000808352968C9152971A96ED91FC911B97B8
:103AB0009081892B808314968C910E94981E6C01B2
:103AC000F80184810E94981EA601481B590B4C5F87
:103AD0005F4F4930510538F49601280F391FC9014D
:103AE0009595879501C0912C4FEF53E06A01C81A54
:103AF000D90A61E0D80115968C910E940F1F60E0F1
:103B0000F80182810E940F1FD80150969C91509716
:103B10001896ED91FC9119978081282F30E0892F1C
:103B200090E08095909582239323808353968C9187
:103B300053971E96ED91FC911F979081892B80835E
:103B400014968C910E94981E5C01F80182810E945B
:103B5000981ED80116960D911C9117970115110505
:103B600009F43FC0BC01990F880B990B0E94C82033
:103B70002B013C01B501BB0C880B990B0E94C8209E
:103B80009B01AC01C301B2010E941E2020E030E085
:103B900040E85FE30E94B11F2B013C01B7010F2CED
:103BA000000C880B990B0E94C8209B01AC01C3013B
:103BB000B2010E9454212B013C01B80180E090E049
:103BC0000E94C6209B01AC01C301B2010E94542196
:103BD00020E030E040E85AE30E9454210E94902007
:103BE00005C0B501681B790B61507C4F911002C074
:103BF00060E070E0FA82E982DC82CB827E836D83B2
:103C00002E2D3A814C2D5C817E8180E090E02696BD
:103C10000FB6F894DEBF0FBECDBFDF91CF911F91DD
:103C20000F91FF90EF90DF90CF90BF90AF909F905B
:103C30007F906F905F904F900895EF92FF920F9357
:103C40001F93DC0112964C93129714962C931497A1
:103C500013960C93139715966C9315971796FC92E1
:103C6000EE92169770E0FB01EA59F84FE491F0E00C
:103C7000EE0FFF1FE455F84F8591949119969C9390
:103C80008E93189750E0FA01EA59F84FE491F0E06A
:103C9000EE0FFF1FE455F84F859194911B969C936E
:103CA0008E931A9730E0F901EA59F84FE491F0E069
:103CB000EE0FFF1FE455F84F859194911D969C934C
:103CC0008E931C9710E0F801EA59F84F849190E028
:103CD000880F991F8455984FFC01859194911F96E8
:103CE0009C938E931E97FB01E05EF84F6491509673
:103CF0006C935097FA01E05EF84F449152964C93C2
:103D00005297F901E05EF84F249151962C93519708
:103D1000F801E05EF84F049153960C9353978AE0B4
:103D200090E08D939C931F910F91FF90EF900895D9
:103D3000863308F0865390917B00282F2870977F58
:103D4000922B90937B0087702091000290E4299F32
:103D500090011124822B80937C0080917A008064F2
:103D600080937A0080917A0086FDFCCF8091780064
:103D70002091790090E0922B089590E0FC0131971A
:103D8000E131F10508F04AC08827EE58FF4F8F4F08
:103D90000C942622809180008F7703C08091800050
:103DA0008F7D80938000089584B58F7702C084B59D
:103DB0008F7D84BD08958091B0008F7703C080917E
:103DC000B0008F7D8093B0000895809190008F7730
:103DD00007C0809190008F7D03C080919000877F05
:103DE0008093900008958091A0008F7707C0809104
:103DF000A0008F7D03C08091A000877F8093A000EA
:103E00000895809120018F7707C0809120018F7DD8
:103E100003C080912001877F809320010895CF9374
:103E2000DF9390E0FC01E05EF84F2491FC01EA5939
:103E3000F84F8491882361F190E0880F991FFC016D
:103E4000EA53F84FC591D491FC01E455F84FA59180
:103E5000B491611109C09FB7F8948881209582239D
:103E60008883EC912E230BC0623061F49FB7F894E5
:103E70003881822F809583238883EC912E2B2C937D
:103E80009FBF06C08FB7F894E8812E2B28838FBF81
:103E9000DF91CF9108951F93CF93DF93282F30E0C8
:103EA000F901E652F94F8491F901E05EF84FD4919F
:103EB000F901EA59F84FC491CC23C9F0162F8111AA
:103EC0000E94BD1EEC2FF0E0EE0FFF1FE455F84FEF
:103ED000A591B4918FB7F894111105C09C91ED2F65
:103EE000E095E92302C0EC91ED2BEC938FBFDF91BD
:103EF000CF911F91089561E085E30E944B1F61E01F
:103F000085E30E940F1F8CB580618CBD8CB58064E9
:103F10008CBD61E084E30E940F1F61E083E30C9499
:103F20000F1F811103C08CB5806202C08CB58F7DDC
:103F30008CBD08959CB5937F892B8CBD08959CB54D
:103F4000282F23709C7F922B9CBD2DB582FB992737
:103F500090F9822F8E7F892B8DBD0895F8940C9453
:103F60006B225058BB27AA270E94C91F0C941A2104
:103F70000E940C2138F00E94132120F039F49F3F59
:103F800019F426F40C9409210EF4E095E7FB0C9447
:103F90000321E92F0E942B2158F3BA1762077307F8
:103FA0008407950720F079F4A6F50C944D210EF4C2
:103FB000E0950B2EBA2FA02D0B01B90190010C0139
:103FC000CA01A0011124FF27591B99F0593F50F451
:103FD000503E68F11A16F040A22F232F342F4427A9
:103FE000585FF3CF469537952795A795F0405395A1
:103FF000C9F77EF41F16BA0B620B730B840BBAF071
:104000009150A1F0FF0FBB1F661F771F881FC2F7DB
:104010000EC0BA0F621F731F841F48F487957795EF
:104020006795B795F7959E3F08F0B0CF9395880FA9
:1040300008F09927EE0F9795879508950E943220F2
:104040000C941A210E94132158F00E940C2140F078
:1040500029F45F3F29F00C94032151110C944E2157
:104060000C9409210E942B2168F39923B1F3552365
:1040700091F3951B550BBB27AA276217730784077B
:1040800038F09F5F5F4F220F331F441FAA1FA9F311
:1040900035D00E2E3AF0E0E832D091505040E695FF
:1040A000001CCAF72BD0FE2F29D0660F771F881F60
:1040B000BB1F261737074807AB07B0E809F0BB0B53
:1040C000802DBF01FF2793585F4F3AF09E3F510567
:1040D00078F00C9403210C944E215F3FE4F3983E5A
:1040E000D4F3869577956795B795F7959F5FC9F750
:1040F000880F911D9695879597F90895E1E0660FD1
:10410000771F881FBB1F621773078407BA0720F049
:10411000621B730B840BBA0BEE1F88F7E0950895B2
:104120000E9497206894B1110C944E2108950E942A
:10413000332188F09F5798F0B92F9927B751B0F0E5
:10414000E1F0660F771F881F991F1AF0BA95C9F71B
:1041500014C0B13091F00E944D21B1E008950C944B
:104160004D21672F782F8827B85F39F0B93FCCF3FE
:10417000869577956795B395D9F73EF49095809598
:10418000709561957F4F8F4F9F4F0895E89409C0B8
:1041900097FB3EF490958095709561957F4F8F4F7A
:1041A0009F4F9923A9F0F92F96E9BB279395F69590
:1041B000879577956795B795F111F8CFFAF4BB0F0E
:1041C00011F460FF1BC06F5F7F4F8F4F9F4F16C072
:1041D000882311F096E911C0772321F09EE8872FFC
:1041E000762F05C0662371F096E8862F70E060E0B8
:1041F0002AF09A95660F771F881FDAF7880F969531
:10420000879597F9089597F99F6780E870E060E0D7
:1042100008959FEF80EC089500240A94161617065F
:1042200018060906089500240A94121613061406A7
:1042300005060895092E0394000C11F4882352F00A
:10424000BB0F40F4BF2B11F460FF04C06F5F7F4FC2
:104250008F4F9F4F089557FD9058440F551F59F0A9
:104260005F3F71F04795880F97FB991F61F09F3F63
:1042700079F087950895121613061406551FF2CF8C
:104280004695F1DF08C0161617061806991FF1CFDC
:1042900086957105610508940895E894BB27662703
:1042A0007727CB0197F908950E9467210C941A2172
:1042B0000E940C2138F00E94132120F0952311F068
:1042C0000C9403210C94092111240C944E210E947A
:1042D0002B2170F3959FC1F3950F50E0551F629FFE
:1042E000F001729FBB27F00DB11D639FAA27F00D4F
:1042F000B11DAA1F649F6627B00DA11D661F829F76
:104300002227B00DA11D621F739FB00DA11D621F5A
:10431000839FA00D611D221F749F3327A00D611D77
:10432000231F849F600D211D822F762F6A2F112459
:104330009F5750409AF0F1F088234AF0EE0FFF1F8C
:10434000BB1F661F771F881F91505040A9F79E3FE3
:10435000510580F00C9403210C944E215F3FE4F34F
:10436000983ED4F3869577956795B795F795E79539
:104370009F5FC1F7FE2B880F911D9695879597F942
:104380000895DB018F939F930E944C22BF91AF91C0
:10439000A29F800D911DA39F900DB29F900D11249F
:1043A000089597FB072E16F4009407D077FD09D0E7
:1043B0000E94572207FC05D03EF4909581959F4FAF
:1043C0000895709561957F4F0895A1E21A2EAA1B5A
:1043D000BB1BFD010DC0AA1FBB1FEE1FFF1FA217B5
:1043E000B307E407F50720F0A21BB30BE40BF50BB2
:1043F000661F771F881F991F1A9469F7609570953B
:10440000809590959B01AC01BD01CF010895052ECB
:1044100097FB1EF400940E941E2257FD07D00E94B5
:10442000E52107FC03D04EF40C941E2250954095D4
:10443000309521953F4F4F4F5F4F08959095809550
:10444000709561957F4F8F4F9F4F0895EE0FFF1F1F
:10445000881F8BBF0790F691E02D19940E94362299
:10446000332312F48A1B9B0B0C944722A29FB001AA
:10447000B39FC001A39F700D811D1124911DB29F98
:10448000700D811D1124911D08950E943622B7FFE1
:104490000895821B930B08950E943622A59F900DCC
:1044A000B49F900DA49F800D911D11240895AA1B07
:1044B000BB1B51E107C0AA1FBB1FA617B70710F00F
:1044C000A61BB70B881F991F5A95A9F78095909541
:0A44D000BC01CD010895F894FFCF60
:1044DA00015265616420626C6F636B206661696C6E
:1044EA0065642C20747279696E6720616761696EF0
:1044FA002E00206D7300526563656E7420534C4F15
:10450A00572072756E3A004E6F742072756E20795C
:10451A006574002000534C4F572072756E206176E7
:10452A00673A00526563656E74204641535420729F
:10453A00756E3A00464153542072756E2061766753
:10454A003A00496E697469616C697A696E672053C9
:10455A00504920636F6D6D756E69636174696F6E22
:10456A0020666F72207261772072656164732E2EE5
:10457A002E006661696C6564212049732074686540
:10458A00206361726420696E736572746564207059
:10459A00726F7065726C793F004F4B21000000000A
:1045AA0000AA0A1609530A7F0A630A9F0A00000032
:1045BA0000C3151609520A78117911981180118CC5
:1045CA0011CF10A81177137613A911EE11321283A5
:1045DA0012A112171300000000C3151609DD16C533
:1045EA0017D91B541CB616CA16CF10AB16951AE16A
:0E45FA001A13174D1787178312A112171300FB
:00000001FF
