:100000000C9418040C9449040C9449040C9449046D
:100010000C9449040C9449040C9449040C9449042C
:100020000C9449040C9449040C9449040C9449041C
:100030000C9449040C9449040C9449040C9449040C
:100040000C9449040C9449040C9449040C944904FC
:100050000C9449040C9449040C9449040C94051024
:100060000C9449040C9410140C94DC140C94490462
:100070000C9449040C9449040C9449040C944904CC
:100080000C9449040C9449040C9449040C944904BC
:100090000C9443140C941B150C9449040C944904BF
:1000A0000C9449040C9449040C9449040C9449049C
:1000B0000C9449040C9449040C9449040C9449048C
:1000C0000C9449040C9449040C9449040C9476143F
:1000D0000C945A150C9449040C94A9140C94991579
:1000E0000C944904441147113A113E117E114B11F1
:1000F0004F11551159115D11631167116B117E116B
:100100007111751179110C94DF2B0C945D110C9405
:10011000A0300C9444110C9455110C944B110C9478
:1001200086210C9467110C946D130C9438300C9448
:1001300070190C94E02B0C94012A0C94201A0C9446
:100140000A2B0C947E110C9438290C945C130C949B
:1001500035190C94E9290C9452310C944F110C94DC
:1001600043300C9460160C94802B0C9414310C9436
:10017000112A0C94DA300C9451190C9459110C94E6
:1001800071110C947A190C94A9130C9447110C94C6
:1001900016360C946A300C943E110C94572A0C9429
:1001A00057300C9414120C949B2A0C942F090C9425
:1001B0005D130C94E2290C94122A0C9463110C9494
:1001C00079110C941F190C949B350C9422340C94C7
:1001D00089130C94E1290C94472F0C946E340C94E1
:1001E0006B110C9475110C94EC2A0C94F5290C9459
:1001F000B4130C943A110C9408190000090A02086F
:100200000B0C0D07060304010000000000000000B5
:1002100000000000000000000000000000000000DE
:1002200000000000000011100F000000000000009E
:1002300000000000000000000000000000000000BE
:1002400001021020200808102040102040800201E8
:1002500002010804020101020408102040808040CD
:1002600020100804020180040201804020100804CC
:10027000020108040201010204081020408001026A
:100280000408102040800505050507050808080832
:10029000020202020A0A080804040404010101011E
:1002A0000101010103030303030303030407070719
:1002B0000C0C0C0C0C0C0C0C0202020206060606BE
:1002C000060606060B0B0B0B0B0B0B0B000020009E
:1002D0002300260029002C002F003200000100001E
:1002E00003010601090100002200250028002B005F
:1002F0002E003100340002010000050108010B014D
:1003000000002100240027002A002D0030003300C7
:1003100001010000040107010A017C3C3E5E2B3D07
:100320003F2F5B5D3B2C2A225C0000000000003E5A
:100330005B4F5B3E3E6B4F6B3E1C3E7C3E1C183C55
:100340007E3C181C577D571C1C5E7F5E1C00183CB1
:100350001800FFE7C3E7FF0018241800FFE7DBE7FA
:10036000FF30483A060E2629792926407F050507E1
:10037000407F05253F5A3CE73C5A7F3E1C1C08083D
:100380001C1C3E7F14227F22145F5F005F5F060902
:100390007F017F006689956A606060606094A2FF5B
:1003A000A29408047E040810207E201008082A1C4D
:1003B00008081C2A08081E101010100C1E0C1E0C19
:1003C00030383E3830060E3E0E06000000000000B9
:1003D000005F00000007000700147F147F14242A28
:1003E0007F2A1223130864623649562050000807FA
:1003F0000300001C2241000041221C002A1C7F1C1B
:100400002A08083E0808008070300008080808081C
:10041000000060600020100804023E5149453E0083
:10042000427F400072494949462141494D331814E1
:10043000127F1027454545393C4A49493141211130
:1004400009073649494936464949291E0000140022
:100450000000403400000008142241141414141445
:10046000004122140802015909063E415D594E7CA3
:100470001211127C7F494949363E414141227F4158
:1004800041413E7F494949417F090909013E4141B6
:1004900051737F0808087F00417F41002040413FA1
:1004A000017F081422417F404040407F021C027FB0
:1004B0007F0408107F3E4141413E7F090909063E05
:1004C0004151215E7F0919294626494949320301D4
:1004D0007F01033F4040403F1F2040201F3F4038E6
:1004E000403F631408146303047804036159494DC1
:1004F00043007F4141410204081020004141417FF7
:10050000040201020440404040400003070800206C
:10051000545478407F28444438384444442838446C
:1005200044287F385454541800087E090218A4A4A3
:100530009C787F0804047800447D40002040403DC2
:10054000007F1028440000417F40007C047804783C
:100550007C080404783844444438FC1824241818CF
:10056000242418FC7C08040408485454542404042B
:100570003F44243C4040207C1C2040201C3C403018
:10058000403C44281028444C9090907C4464544C47
:1005900044000836410000007700000041360800A2
:1005A00002010204023C2623263C1EA1A161123A4C
:1005B0004040207A38545455592155557941225498
:1005C000547842215554784020545579400C1E529D
:1005D0007212395555555939545454593955545442
:1005E000580000457C410002457D420001457C40A9
:1005F0007D1211127DF0282528F07C5455450020ED
:1006000054547C547C0A097F4932494949323A445E
:1006100044443A324A4848303A4141217A3A4240C9
:100620002078009DA0A07D3D4242423D3D4040409B
:100630003D3C24FF2424487E4943662B2FFC2F2B6E
:10064000FF0929F620C0887E09032054547941000F
:1006500000447D413048484A32384040227A007A8E
:100660000A0A727D0D19317D2629292F282629296C
:10067000292630484D40203808080808080808088E
:10068000382F10C8ACBA2F102834FA00007B0000B5
:1006900008142A142222142A14085500550055AAB9
:1006A00055AA55AAFF55FF55FF000000FF00101086
:1006B00010FF00141414FF001010FF00FF1010F0C2
:1006C00010F0141414FC001414F700FF0000FF00D5
:1006D000FF1414F404FC141417101F10101F101F23
:1006E0001414141F00101010F0000000001F101050
:1006F00010101F10101010F010000000FF1010104C
:10070000101010101010FF10000000FF140000FF68
:1007100000FF00001F10170000FC04F41414171051
:10072000171414F404F40000FF00F7141414141444
:100730001414F700F7141414171410101F101F14BA
:100740001414F4141010F010F000001F101F00001B
:10075000001F14000000FC140000F010F01010FF47
:1007600010FF141414FF141010101F00000000F0EC
:1007700010FFFFFFFFFFF0F0F0F0F0FFFFFF0000C1
:10078000000000FFFF0F0F0F0F0F3844443844FCE8
:100790004A4A4A347E02020606027E027E026355FF
:1007A0004941633844443C04407E201E2006027EBA
:1007B000020299A5E7A5991C2A492A1C4C720172CC
:1007C0004C304A4D4D303048784830BC625A463D36
:1007D0003E494949007E0101017E2A2A2A2A2A44EB
:1007E000445F444440514A444040444A5140000020
:1007F000FF0103E080FF000008086B6B083612362B
:100800002436060F090F060000181800000010100B
:10081000003040FF0101001F01011E00191D1712C9
:10082000003C3C3C3C00000000002F096016081909
:1008300011241FBECFEFD1E2DEBFCDBF00E00CBF61
:1008400013E0A0E0B2E0E2E4FAE700E00BBF02C090
:1008500007900D92A834B107D9F72BE1A8E4B3E0D3
:1008600001C01D92AE34B207E1F714E0C8E1D4E054
:1008700000E006C021970109802FFE010E94EE3C96
:10088000C531D10780E00807A9F70E94FE0F0C943C
:10089000BA390C9400002F923F924F925F926F9260
:1008A0007F928F929F92AF92BF92CF92DF92EF9200
:1008B000FF920F931F93CF93DF93CDB7DEB7CA5448
:1008C000D1090FB6F894DEBF0FBECDBF9CAF8BAF82
:1008D0004B0158AF4FAB39011EAF0DAF2196FFAEA4
:1008E000EEAE21972396BFAEAEAE23970DB71EB7DF
:1008F00025961FAF0EAF25978E01045E1F4FC801CE
:100900000E94D919ABADBCAD4D915C9121E068EF6F
:1009100078E1CE0101960E9486188B819C819F8F81
:100920008E8F8D819E81AF81B88588A399A3AAA35C
:10093000BBA389859A85AB85BC858CA39DA3AEA3FB
:10094000BFA38DE0FE013D96DE01989601900D92C9
:100950008A95E1F78A8D9B8D9EAB8DABC8010E9475
:10096000611AF82ECE0101960E94EC19FF20C1F009
:10097000F601EE0FFF1FFAAFE9AF1301412C512C26
:10098000E12CF12CAFA9B8ADCD01A0E0B0E02996E3
:100990008CAF9DAFAEAFBFAF2997702E612E29C02F
:1009A0006FE172E086EB96E10E945112EBADFCAD77
:1009B0006081718186EB96E10E94511267E286EBBD
:1009C00096E10E948012A6C0D401ED91FC910288AC
:1009D000F389E02DC40119950FB6F894BEBE0FBE81
:1009E000ADBEBFEFEB1AFB0AEFEF2E1A3E0A4E0A1E
:1009F0005E0A23960EAD1FAD2397E016F10609F4AB
:100A000082C0ADB6BEB60DB71EB729AD3AAD021B5A
:100A1000130B0FB6F8941EBF0FBE0DBF8DB79EB758
:100A2000019698AF8FABEBADFCADA281B381A20173
:100A300091010E94143D29960CAD1DAD2EAD3FAD28
:100A40002997060F171F281F391FB901A801440F46
:100A5000551F661F771F872D962D0E94F71949ADE8
:100A60005AAD6FA978AD872D962D0E94ED1929AD4D
:100A70003AAD8217930781F060E372E086EB96E16E
:100A80000E946E12872D962D0E944F1A0FB6F89471
:100A9000BEBE0FBEADBE3EC0D401ED91FC9106803E
:100AA000F781E02DC401199501E010E0960121962F
:100AB0004EAD5FAD21974E0D5F1D6DAD7EADC40196
:100AC0000E9494340FA918AD20E030E02C153D05AC
:100AD00009F47ACFF801619171918F017627672728
:100AE0007627C4012A962FAF2A972B963FAF2B97D4
:100AF0000E9445352A962FAD2A972B963FAD2B970E
:100B00002F5F3F4FE3CFCE014C960E944F1ACE018C
:100B10004C9602C0CE014C960E94EC1925962EAD43
:100B20003FAD25970FB6F8943EBF0FBE2DBFC65BF5
:100B3000DF4F0FB6F894DEBF0FBECDBFDF91CF9170
:100B40001F910F91FF90EF90DF90CF90BF90AF90EB
:100B50009F908F907F906F905F904F903F902F90DD
:100B60000895AF92BF92CF92DF92EF92FF920F93D0
:100B70001F9380910C0290910D02883021E0920722
:100B800084F04091060250910702403F86E05807EA
:100B90000CF041C048575F4F413F26E0520794F0A8
:100BA0000FC097FF38C040910602509107021416FB
:100BB00015068CF548585109413F86E0580714F056
:100BC00040EF56E057FF02C040E050E0509307026C
:100BD00040930602209104023091050260EFA62E98
:100BE000B12C70E1C72EDD24D394E12CF12C00E070
:100BF00010E064E176E18EE092E00E944B0483E82D
:100C000090E090930D0280930C0283E790E0909324
:100C10000B0280930A0280910A0290910B02883E97
:100C200091055CF02091040230910502203187E0AB
:100C30003807ECF528583F4F0BC097FF38C020917C
:100C4000040230910502121613068CF5285731095B
:100C5000213187E0380714F020E137E037FF02C088
:100C600020E030E030930502209304024091060218
:100C70005091070280EFA82EB12C90E1C92EDD24FF
:100C8000D394E12CF12C00E010E064E176E18EE0F9
:100C900092E00E944B0483E890E090930D028093D1
:100CA0000C0283E790E090930B0280930A021F915D
:100CB0000F91FF90EF90DF90CF90BF90AF9008958D
:100CC000CF92DF92EF92FF920F931F93CF93DF9318
:100CD000EC018B016C0197FF03C087E0C80ED11CAB
:100CE00093E0D594C7949A95E1F70D2C000CEE088B
:100CF000FF0889E0D80E8DE3E81EF11C8091000208
:100D000090910102A0910202B0910302C816D90687
:100D1000EA06FB06C9F024EF33E1B701A60184EF30
:100D200095E10E94FD23811107C064E472E086EB27
:100D300096E10E946E12EFCFC0920002D0920102A3
:100D4000E0920202F0920302CE0168E070E00E949D
:100D5000993CFC0186E0EE0FFF1F8A95E1F7EC500D
:100D6000FC4E80E4D80101900D928A95E1F7DF9165
:100D7000CF911F910F91FF90EF90DF90CF9008954A
:100D8000AF92BF92CF92DF92EF92FF920F931F9399
:100D90001F921F9228E02F931F92A12CB12C650166
:100DA00018E8E12E10E1F12E03E51FEF24E337E808
:100DB00042E55FEF0E9432170F900F900F900F9057
:100DC000CB011F910F91FF90EF90DF90CF90BF90DC
:100DD000AF900895AF92BF92CF92DF92EF92FF92C1
:100DE0000F931F931F921F9228E02F931F92A12C05
:100DF000B12C650119E1E12E1FE7F12E01E510E0AC
:100E000022EC30ED41E550E00E9432170F900F9038
:100E10000F900F90CB011F910F91FF90EF90DF90FB
:100E2000CF90BF90AF900895CF93DF93EC0187E30D
:100E30000E940811803C91403CF4809108029091FE
:100E40000902813C9140E4F487E30E940811813457
:100E500092403CF0809108029091090280349240C7
:100E60009CF087E30E940811909309028093080286
:100E70006AE070E080E090E0DF91CF910C94801008
:100E800088819981019703C088819981019699830E
:100E90008883E7CFCF92DF92EF92FF920F931F9359
:100EA000FC010081118122813381FB01C080D1804E
:100EB000E280F380FC01C082D182E282F382FB01F6
:100EC00000831183228333831F910F91FF90EF9052
:100ED000DF90CF9008956F927F928F929F92AF9202
:100EE000BF92CF92DF92EF92FF920F931F93CF9317
:100EF000DF936C017B013A015A01AA0CBB1CAA0CBE
:100F0000BB1CA80EB91EF50182809380EB012197CE
:100F10008B01000F111F000F111F080F191FE6147E
:100F2000F704BCF4F801828193818816990658F081
:100F30002196CE01880F991F880F991FB8018C0D3B
:100F40009D1D0E944A07FFEFEF1AFF0A0C5F1F4F1B
:100F5000E6CF2196CE01880F991F880F991FB50102
:100F60008C0D9D1D0E944A07CE01DF91CF911F91EC
:100F70000F91FF90EF90DF90CF90BF90AF909F9038
:100F80008F907F906F900895CF92DF92EF92FF92B3
:100F90000F931F93CF93DF937C01EB016A01CC1574
:100FA000DD0584F4A601BE01C7010E946B078C0118
:100FB000AC0141505109BE01C7010E94C407E801BC
:100FC0002196EDCFDF91CF911F910F91FF90EF9080
:100FD000DF90CF900895AF92BF92CF92DF92EF92C1
:100FE000FF920F931F93CF93DF935B0104967C01D5
:100FF00001E010E00A151B0504F5E70168011C1467
:101000001D04ACF49E0124503109BE01E901FB012D
:101010003297408151812E813F812417350738F462
:10102000CE010E944A0781E0C81AD108E8CF0F5FBD
:101030001F4F84E0E80EF11CDDCFDF91CF911F91AF
:101040000F91FF90EF90DF90CF90BF90AF900895F9
:101050004F925F926F927F928F929F92AF92BF92C8
:10106000CF92DF92EF92FF920F931F93CF93DF9374
:10107000CDB7DEB7C054D1090FB6F894DEBF0FBEAE
:10108000CDBF4C011092490310924803C12CD12CC2
:101090002CEFA22EBB24BA94BE016F5F7F4FC60116
:1010A0000E946006698570E080E090E00E94F93A55
:1010B00020E030E040E85FE30E94E53920E030E0E6
:1010C00040E05FE30E94083C0E94363B2B013C015C
:1010D00020E030E040E85FE30E94033C181634F063
:1010E000412C512C90E8692E9FE3792E80914B037F
:1010F00090E00196BC01990F880B990B0E94FB3A76
:101100009B01AC01C301B2010E94033C87FD86C074
:10111000E0904803F0904903EE0CFF1CEE0CFF1C1E
:10112000E80CF91CF701D182C0826D817E818F812C
:1011300098850E94C00600910C0210910D0220912A
:10114000060230910702020F131F9501201B310B7D
:10115000280F391F6D817E818F81988512161306A5
:1011600094F40E94C00640910C0250910D0220910F
:10117000060230910702240F351F8501021B130B55
:10118000080F191F06C00E94C0060C5F1F4F081BE6
:10119000190B69817A818B819C810E94EA0660909B
:1011A0000A0270900B022091040230910502620E37
:1011B000731E950126193709280F391F69817A8115
:1011C0008B819C811216130694F40E94EA064091CA
:1011D0000A0250910B022091040230910502240F63
:1011E000351F3501621A730A860D971D09C00E94CA
:1011F000EA06F4E06F0E711C9301281B390BC9013C
:10120000800F911FF701938382838091480390910F
:10121000490301969093490380934803FFEFCF1A47
:10122000DF0A2AE2C21624E0D20609F035CFC05CFC
:10123000DF4F0FB6F894DEBF0FBECDBFDF91CF9169
:101240001F910F91FF90EF90DF90CF90BF90AF90E4
:101250009F908F907F906F905F904F900895EF9246
:10126000FF920F932FEF49E06AE084E196E10E943C
:101270006B318CE2E82EFF24F39405E029E348E388
:1012800064E080E096E10E94DF37E4EFF5E115824B
:101290001682118613860F91FF90EF900895CF92DA
:1012A000DF92EF92FF928130910509F471C0823094
:1012B000910571F1892B09F0ADC08CE493E00E9497
:1012C000280867E572E086EB96E10E945112609172
:1012D0004803709149034AE050E086EB96E10E9492
:1012E000561363E672E086EB96E10E9451120E946B
:1012F0004F106B017C0140914803509149034150CC
:10130000510960E070E08CE493E00E94C40766C07D
:101310008CE493E00E94280867E572E086EB96E192
:101320000E94511260914803709149034AE050E0D5
:1013300086EB96E10E94561363E672E086EB96E137
:101340000E9451120E944F106B017C014091480392
:101350005091490360E070E08CE493E00E94C40780
:101360000E944F10AB01BC014C195D096E097F0949
:101370002AE030E086EB96E10E94491362E772E0D2
:1013800086EB96E10E94511286EB96E10E94A9132A
:101390008CE493E00E94280868E772E086EB96E10F
:1013A0000E94511260914803709149034AE050E055
:1013B00086EB96E10E94561363E672E086EB96E1B7
:1013C0000E9451120E944F106B017C0160914803F2
:1013D000709149038CE493E00E94EB070E944F1048
:1013E000AB01BC014C195D096E097F092AE030E0B0
:1013F00086EB96E10E94491362E772E086EB96E184
:101400000E94511286EB96E1FF90EF90DF90CF9013
:101410000C94A913FF90EF90DF90CF9008950E9455
:10142000A61040E855E260E070E086EB96E10E948D
:10143000D81586EB96E10E94A91362E08DE00E9428
:101440007F1140E050E0BA0184E196E10E942C3225
:1014500068E872E086EB96E10E94511266E088EF40
:1014600098E10E947317811107C060EA72E086EB71
:1014700096E10E946E12FFCF68EA72E086EB96E179
:101480000E946E126CEA72E086EB96E10E945112A5
:1014900046E061E084EF95E10E946B22811107C074
:1014A00060EA72E086EB96E10E946E12FFCF68EA76
:1014B00072E086EB96E10E946E1263E084E196E1B1
:1014C0000C9422348F929F92AF92BF92CF92DF9270
:1014D000EF92FF920F931F93CF93DF93EC014B0199
:1014E00079018091040290910502280F391FE09143
:1014F0000602F0910702E40FF51F89E0A82EB12C37
:1015000099E0C92ED12C8A01AF0164E176E18EE029
:1015100092E00E944B04E12C28EFF22E09E010E04B
:1015200029E030E0A401BE0184E196E10E9414317B
:10153000DF91CF911F910F91FF90EF90DF90CF90AF
:10154000BF90AF909F908F900895EF92FF920F936E
:101550001F93CF93DF9386E30E9408117C0187E3FA
:101560000E940811C0910C02D0910D0200910A0254
:1015700010910B0260E072E06E197F0977FF02C0E4
:10158000615C7F4F36E0759567953A95E1F76C0F92
:101590007D1F70930D0260930C02925097FDCF96C1
:1015A00026E0959587952A95E1F7800F911F9093F6
:1015B0000B0280930A020E94B10580910C02909167
:1015C0000D02883021E0920714F087E091E097FF48
:1015D00002C080E090E090930D0280930C02609135
:1015E0000A0270910B02683E710514F067EE70E01C
:1015F00077FF02C060E070E070930B0260930A0214
:101600008C179D0719F46017710721F09801AE013E
:101610000E94620A6AE070E080E090E0DF91CF9182
:101620001F910F91FF90EF900C948010EF92FF921A
:101630000F931F93EE24EA94FE2C06E710E02FE2AE
:1016400030E041E050E061E171E084E196E10E9428
:1016500014316FE170E084E196E10E94293044E3A7
:1016600050E062E271E084E196E10E941D306091F9
:101670004B0370E06F5F7F4F4AE050E084E196E1FA
:101680001F910F91FF90EF900C943213CF92EF9235
:10169000FF920F931F93EE24EA94FE2C06E710E0CE
:1016A0002FE230E049E750E061E171E084E196E14A
:1016B0000E94143180914A03813099F148F18230BF
:1016C00009F063C082E0C82EEE24EA94FE2C0FE1FC
:1016D00010E022E441E950E062E271E084E196E149
:1016E0000E94312D2FE441EA50E062E271E084E192
:1016F00096E10E94312D24E541EB50E062E271E079
:1017000084E196E10E94312D28E441EC50E037C09D
:1017100042E0C42EEE24EA94FE2C0FE110E021E515
:1017200008C022E0C22EEE24EA94FE2C0FE110E065
:1017300029E44CE850E062E271E084E196E10E9425
:10174000312D23E54CE950E062E271E084E196E15D
:101750000E94312D2FE44CEA50E062E271E084E116
:1017600096E10E94312D22E54CEB50E062E271E0FF
:1017700084E196E10E94312D24E54CEC50E062E2D8
:1017800071E084E196E10E94312D1F910F91FF904D
:10179000EF90CF9008954F925F926F927F928F92C9
:1017A0009F92AF92BF92CF92DF92EF92FF920F93F0
:1017B0001F93CF93DF93CDB7DEB7C654D1090FB6D1
:1017C000F894DEBF0FBECDBF80E096E10E94853663
:1017D00022962FAF229723963FAF239724964FAFA1
:1017E000249725965FAF259725966EAD7FAD2597FB
:1017F000072E000C880B990B1F921F921F921F92AD
:101800002FE3A22EBB24B394C12CD12C1CEAE12ED1
:1018100013E0F12E00E010E028E730E040E050E077
:101820000E9432172B013C0123968EAD9FAD23976A
:10183000BC01990F880B990B1F921F921F922FEEDC
:101840002F93A12CB12C650118E9E12E13E0F12EA4
:1018500000E010E026E930E040E050E00E9432175E
:101860000FB6F894DEBF0FBECDBF31E1431631E0B5
:1018700053060CF088C0E12CF12CBE016F5F7F4F46
:10188000C7010E9460066D817E818F8198850E94CC
:10189000C0068C0180910602909107029C012D5F89
:1018A0003F4F201731070CF064C0845F9E4F8017B4
:1018B00091070CF45EC0698570E080E090E00E94C2
:1018C000F93A20E030E040E85FE30E94E53920E0AB
:1018D00030E040E05FE30E94083C0E94363B4B0151
:1018E0005C0120E030E040E85FE30E94033C181612
:1018F00034F0812C912C80E8A82E8FE3B82E4091F3
:101900004B0350E04F5F5F4FBA01550F880B990BA7
:101910000E94FB3A9B01AC01C501B4010E94033C4B
:1019200087FD27C069817A818B819C810E94EA06AC
:101930002091040230910502A9014D5F5F4F4817C5
:101940005907BCF447515F4F4817590794F0AC0151
:10195000421B530B8091060290910702B801681B4D
:10196000790B0FE110E024E030E084E196E10E9481
:10197000EA2C8FEFE81AF80A2AE2E21624E0F206CF
:1019800009F07BCF22C0693771056CF080914A0362
:1019900090E0019663E070E00E94993C80934A03D6
:1019A0000E94460B0CC080914B0390E0019665E0CD
:1019B00070E00E94993C80934B030E94160B6CE2EE
:1019C00071E080E090E00E948010CA5BDF4F0FB6AC
:1019D000F894DEBF0FBECDBFDF91CF911F910F9165
:1019E000FF90EF90DF90CF90BF90AF909F908F903F
:1019F0007F906F905F904F900895AF92BF92CF927B
:101A0000DF92EF92FF920F931F93CF93DF9300D05B
:101A100000D0CDB7DEB762E084E196E10E942330CA
:101A200000E010E020E330E047E750E060E171E0E3
:101A300084E196E10E94DA30E12C88EFF82E07E786
:101A400010E020E330E040E050E060E171E084E14C
:101A500096E10E94802B90EEE92E97E0F92E20E38C
:101A600030E048E750E060E171E084E196E10E94F7
:101A7000802B0E94160B0E94460B2091040230918D
:101A80000502409106025091070260EFA62EB12C8C
:101A900070E1C72EDD24D394E12CF12C00E010E09E
:101AA00064E176E18EE092E00E944B0460910A02CC
:101AB00070910B0280910C0290910D029B01AC0180
:101AC0000E94620A8DE00E94EB11892B89F00E942E
:101AD000A50A80E096E10E9485366D837E838D8124
:101AE0009E810A978F3D934068F70E94CB0BEACF07
:101AF00026960FB6F894DEBF0FBECDBFDF91CF9113
:101B00001F910F91FF90EF90DF90CF90BF90AF901B
:101B100008956F927F928F929F92AF92BF92CF92D1
:101B2000DF92EF92FF920F931F93CF93DF93CDB786
:101B3000DEB7C054D1090FB6F894DEBF0FBECDBFDB
:101B40007C014B0160E070E084E196E10E94EC2AA8
:101B500040E050E060E070E084E196E10E941D30DA
:101B600060E084E196E10E9435303701660C771C15
:101B7000660C771C8701C12CD12C57018EE1A80E71
:101B8000B11C82EEE8168FEFF806DCF120914803D5
:101B900030914903C5012A153B0508F4C90108170E
:101BA000190778F5F601E60DF71DE45BFC4FBE0161
:101BB0006F5F7F4F808191810E9460060815190533
:101BC00029F040E050E06FEF7FEF04C04FEF5FEF90
:101BD00060E070E084E196E10E942F30BE01665F14
:101BE0007F4F84E196E10E94511260EC72E084E143
:101BF00096E10E9451120F5F1F4F84E0C80ED11C66
:101C0000C0CF60EC72E084E196E10E945112C05CAA
:101C1000DF4F0FB6F894DEBF0FBECDBFDF91CF917F
:101C20001F910F91FF90EF90DF90CF90BF90AF90FA
:101C30009F908F907F906F9008958F929F92AF9218
:101C4000BF92CF92DF92EF92FF920F931F93CF93A9
:101C5000DF93CDB7DEB7C254D1090FB6F894DEBF1B
:101C60000FBECDBF61E084E196E10E9423308091F8
:101C70004A0390E00E944F0960E070E080E090E04D
:101C80000E94890D23961FAE1EAE2397BE016F5F83
:101C90007F4F80914C0390914D030E94600600E0BD
:101CA00010E0EEE1CE2ED12CFDE1AF2EB12C8DE077
:101CB0000E94EB11892B09F41CC12396EEACFFACFA
:101CC0002397CE018F5B9F4F0E94140748012EE19E
:101CD000820E911C209148033091490323968EADCA
:101CE0009FAD239782169306E0F44E97BCF123969E
:101CF0001FAE1EAE2397F401EE0FFF1FEE0FFF1F66
:101D0000E45BFC4FBE016F5F7F4F808191810E9439
:101D10006006B401C4010E94890D8401E12CF12CFC
:101D20001DC0800F911F82179307C0F023961FAE2E
:101D30001EAE2397BE016F5F7F4F80914C03909141
:101D40004D030E94600660E070E080E090E00E9439
:101D5000890DE12CF12C00E010E02AC00E311105B4
:101D60003CF123968EAD9FAD239797FF51C078012C
:101D70004EE1E41AF1082396BFAEAEAE23970150B0
:101D80001109F801EE0FFF1FEE0FFF1FE45BFC4F80
:101D9000BE016F5F7F4F808191810E946006B80114
:101DA000C7010E94890D87016DE1E62EF12C30C03C
:101DB00023968EAD9FAD239797FF2AC020914803AD
:101DC00030914903C901B6010E94853C8901081B75
:101DD000190B7C0141E0E41AF1082396FFAEEEAE48
:101DE0002397220F331F220F331FF901E85BFC4FAB
:101DF000BE016F5F7F4F808191810E94600660917C
:101E000048037091490361507109C8010E94890D0E
:101E100023968EAD9FAD23978E159F0509F447CF6E
:101E2000F701E00FF11FEE0FFF1FEE0FFF1FE45B46
:101E3000FC4FBE016F5F7F4F808191810E946006E1
:101E4000A70193E0440F551F9A95E1F760E070E019
:101E500084E196E10E941D3040E050E06FEF7FEF9B
:101E600084E196E10E942F30BE01665F7F4F84E1DE
:101E700096E10E94511260EC72E084E196E10E94CA
:101E800051122396EEADFFAD2397E00FF11FEE0F39
:101E9000FF1FEE0FFF1FE45BFC4FBE016F5F7F4F24
:101EA000808191810E94600623964EAD5FAD23979D
:101EB00033E0440F551F3A95E1F760E070E084E1AC
:101EC00096E10E941D304FEF5FEF60E070E084E12B
:101ED00096E10E942F30BE01665F7F4F84E196E15C
:101EE0000E94511260EC72E084E196E10E9451126E
:101EF000DECE6D817E818F8198850E94C0068858D4
:101F00009109909307028093060269817A818B81FF
:101F10009C810E94EA062091060230910702213F2F
:101F200046E0340714F020EF36E037FF02C020E02F
:101F300030E03093070220930602885791098131DF
:101F400027E0920714F080E197E097FF02C080E05D
:101F500090E090930502809304026D817E818F81D1
:101F600098850E94C0062091060230910702821BCC
:101F7000930B049790930D0280930C0269817A81F0
:101F80008B819C810E94EA06209104023091050217
:101F9000821B930B049720910C0230910D02283084
:101FA00041E0340714F027E031E037FF02C020E0C1
:101FB00030E030930D0220930C02883E910514F01E
:101FC00087EE90E097FF02C080E090E090930B02D4
:101FD00080930A02CE5BDF4F0FB6F894DEBF0FBED0
:101FE000CDBFDF91CF911F910F91FF90EF90DF90C8
:101FF000CF90BF90AF909F908F9008950E940F0A4E
:102000000E94FD0C0E941D0EFBCF1F920F920FB677
:102010000F9211242F933F938F939F93AF93BF936E
:102020008091481690914916A0914A16B0914B168E
:102030003091471623E0230F2D3720F40196A11D80
:10204000B11D05C026E8230F0296A11DB11D2093E6
:1020500047168093481690934916A0934A16B0935A
:102060004B1680914C1690914D16A0914E16B09142
:102070004F160196A11DB11D80934C1690934D16DD
:10208000A0934E16B0934F16BF91AF919F918F9131
:102090003F912F910F900FBE0F901F9018952FB763
:1020A000F894609148167091491680914A16909163
:1020B0004B162FBF08953FB7F89480914C1690911E
:1020C0004D16A0914E16B0914F1626B5A89B05C08F
:1020D0002F3F19F00196A11DB11D3FBFBA2FA92FA7
:1020E000982F8827820F911DA11DB11DBC01CD0124
:1020F00042E0660F771F881F991F4A95D1F7089510
:10210000CF92DF92EF92FF92CF93DF936B017C012E
:102110000E945B10EB01C114D104E104F10479F0D9
:102120000E945B106C1B7D0B683E7340A0F381E046
:10213000C81AD108E108F108C851DC4FECCFDF9193
:10214000CF91FF90EF90DF90CF900895789484B571
:10215000826084BD84B5816084BD85B5826085BDA3
:1021600085B5816085BDEEE6F0E080818160808389
:10217000E1E8F0E01082808182608083808181606C
:102180008083E0E8F0E0808181608083E1EBF0E033
:10219000808184608083E0EBF0E0808181608083D7
:1021A000E1E9F0E0808182608083808181608083CA
:1021B000E0E9F0E0808181608083E1EAF0E0808105
:1021C00082608083808181608083E0EAF0E08081AA
:1021D00081608083E1E2F1E08081826080838081A0
:1021E00081608083E0E2F1E0808181608083EAE7C2
:1021F000F0E0808184608083808182608083808140
:10220000816080838081806880831092C1000895FE
:10221000863308F0865390917B00282F2870977F93
:10222000922B90937B0087702091140290E4299F59
:1022300090011124822B80937C0080917A0080642D
:1022400080937A0080917A0086FDFCCF809178009F
:102250002091790090E0922B089590E0FC01319755
:10226000E131F10508F04AC08827EE58FF4F8F4F43
:102270000C94EE3C809180008F7703C080918000A9
:102280008F7D80938000089584B58F7702C084B5D8
:102290008F7D84BD08958091B0008F7703C08091B9
:1022A000B0008F7D8093B0000895809190008F776B
:1022B00007C0809190008F7D03C080919000877F40
:1022C0008093900008958091A0008F7707C080913F
:1022D000A0008F7D03C08091A000877F8093A00025
:1022E0000895809120018F7707C0809120018F7D14
:1022F00003C080912001877F809320010895CF93B0
:10230000DF9390E0FC01E05CFD4F2491FC01EA5773
:10231000FD4F8491882361F190E0880F991FFC01A3
:10232000E050FD4FC591D491FC01EA51FD4FA591BC
:10233000B491611109C09FB7F894888120958223D8
:102340008883EC912E230BC0623061F49FB7F89420
:102350003881822F809583238883EC912E2B2C93B8
:102360009FBF06C08FB7F894E8812E2B28838FBFBC
:10237000DF91CF9108951F93CF93DF93282F30E003
:10238000F901E650FE4F8491F901E05CFD4FD491D4
:10239000F901EA57FD4FC491CC23C9F0162F8111E2
:1023A0000E942D11EC2FF0E0EE0FFF1FEA51FD4FC0
:1023B000A591B4918FB7F894111105C09C91ED2FA0
:1023C000E095E92302C0EC91ED2BEC938FBFDF91F8
:1023D000CF911F910895CF93DF93282F30E0F9011B
:1023E000E650FE4F8491F901E05CFD4FD491F90174
:1023F000EA57FD4FC491CC2391F081110E942D1119
:10240000EC2FF0E0EE0FFF1FE453FD4FA591B491C8
:10241000EC91ED2381E090E021F480E002C080E0C7
:1024200090E0DF91CF910895CF92DF92EF92FF92EB
:102430000F931F93CF93DF936C01EB017B01E40EAD
:10244000F51E00E010E0CE15DF0561F06991D601C0
:10245000ED91FC910190F081E02DC6011995080FD6
:10246000191FF1CFC801DF91CF911F910F91FF90FC
:10247000EF90DF90CF9008956115710579F0FB0121
:1024800001900020E9F73197AF01461B570BDC01A3
:10249000ED91FC910280F381E02D199480E090E0B1
:1024A00008950C943C12DC01ED91FC910190F081B7
:1024B000E02D19940F931F93CF93DF93EC016DE000
:1024C0000E9453128C016AE0CE010E945312800FC9
:1024D000911FDF91CF911F910F9108950F931F933B
:1024E000CF93DF93EC010E943C128C01CE010E943D
:1024F0005A12800F911FDF91CF911F910F91089574
:102500000F931F93CF93DF93EC010E9453128C0122
:10251000CE010E945A12800F911FDF91CF911F911F
:102520000F9108958F929F92AF92BF92CF92DF92B8
:10253000EF92FF920F931F93CF93DF93CDB7DEB748
:10254000A1970FB6F894DEBF0FBECDBF6C01142F5C
:10255000E52FCB01022F19A2223008F40AE07E01F8
:1025600021E2E20EF11C802E912CA12CB12C612FC6
:102570007E2FA50194010E94AD3C029F10191124E9
:1025800081E0E81AF1081A3014F4105D01C0195CFA
:10259000F7011083122FE32FCA01232B242B252BA5
:1025A00031F7B701C6010E943C12A1960FB6F8940C
:1025B000DEBF0FBECDBFDF91CF911F910F91FF9076
:1025C000EF90DF90CF90BF90AF909F908F90089545
:1025D000CF92DF92EF92FF920F931F93CF93DF93EF
:1025E000EC016A017B012115310579F4E881F9815B
:1025F0000190F081E02D642FDF91CF911F910F9119
:10260000FF90EF90DF90CF9019942A303105E9F4D4
:1026100077FF1AC06DE20E9453128C0144275527A0
:10262000BA014C195D096E097F092AE0CE010E94AA
:102630009212800F911FDF91CF911F910F91FF9008
:10264000EF90DF90CF9008952AE0B701A601CE0168
:10265000DF91CF911F910F91FF90EF90DF90CF907E
:102660000C9492120F931F93CF93DF93EC019A0176
:10267000AB01770F660B770B0E94E8128C01CE013D
:102680000E945A12800F911FDF91CF911F910F91DD
:1026900008952115310541F4DC01ED91FC91019083
:1026A000F081E02D642F19940C9492129A01AB01E1
:1026B00060E070E00C9449130895FC012485358591
:1026C000F901E05CFF4F8081918132962081318158
:1026D000821B930B8F7399270895DC011C96ED9153
:1026E000FC911D97DF01A05CBF4F2D913C9111978C
:1026F00012968D919C9111972817390739F08D9179
:102700009C91E80FF91F808190E008958FEF9FEF73
:102710000895FC01A485B585FD01E05CFF4F208193
:1027200031813296808191812817390779F0808133
:102730009181A80FB91F8C91208131812F5F3F4F6C
:102740002F7333273183208390E008958FEF9FEF1D
:102750000895FC0181A1882329F0A489B5898C9171
:1027600086FFFBCF11A208950F931F93CF93DF93A2
:10277000FC01A685B7858D01005C1F4FE8018881AB
:10278000998101968F739927AD014E5B5F4FEA01E6
:102790002881398182179307D1F3E8012881398193
:1027A000A20FB31F6C93A685B785A05CBF4F11968F
:1027B0009C938E93A689B7892C9181E090E0078C39
:1027C00002C0880F991F0A94E2F7822B8C9381E054
:1027D00081A30488F589E02D80818064808381E075
:1027E00090E0DF91CF911F910F910895FB01E05C84
:1027F000FF4F208131812F5F3F4F2F733327DB0144
:10280000AE5BBF4F4D915C912417350741F040817D
:102810005181DB01A40FB51F8C9331832083089570
:102820001F920F920FB60F9211240BB60F922F9397
:102830003F934F935F936F937F938F939F93AF9348
:10284000BF93EF93FF938091C00082FD07C08091FA
:10285000C60064EB78E10E94F61302C08091C600C6
:10286000FF91EF91BF91AF919F918F917F916F9168
:102870005F914F913F912F910F900BBE0F900FBE24
:102880000F901F9018951F920F920FB60F92112460
:102890000BB60F922F933F934F935F936F937F935A
:1028A0008F939F93AF93BF93EF93FF938091C80053
:1028B00082FD07C08091CE006CE278E10E94F613A1
:1028C00002C08091CE00FF91EF91BF91AF919F9197
:1028D0008F917F916F915F914F913F912F910F90C9
:1028E0000BBE0F900FBE0F901F9018951F920F9266
:1028F0000FB60F9211240BB60F922F933F934F9365
:102900005F936F937F938F939F93AF93BF93EF9357
:10291000FF938091D00082FD07C08091D60064EAC9
:1029200077E10E94F61302C08091D600FF91EF91EB
:10293000BF91AF919F918F917F916F915F914F91D7
:102940003F912F910F900BBE0F900FBE0F901F90D5
:1029500018951F920F920FB60F9211240BB60F927B
:102960002F933F934F935F936F937F938F939F9397
:10297000AF93BF93EF93FF938091300182FD07C027
:10298000809136016CE177E10E94F61302C08091DC
:102990003601FF91EF91BF91AF919F918F917F9100
:1029A0006F915F914F913F912F910F900BBE0F90C0
:1029B0000FBE0F901F9018951F920F920FB60F9297
:1029C00011240BB60F922F933F938F939F93EF9306
:1029D000FF932091B0183091B1188091B218909166
:1029E000B3182817390731F48091C1008F7D809387
:1029F000C10014C0E091B218F091B318E059F74E3D
:102A000020818091B2189091B31801968F73992705
:102A10009093B3188093B2182093C600FF91EF9162
:102A20009F918F913F912F910F900BBE0F900FBEF2
:102A30000F901F9018951F920F920FB60F921124AE
:102A40000BB60F922F933F938F939F93EF93FF9328
:102A5000209128183091291880912A1890912B18CC
:102A60002817390731F48091C9008F7D8093C90000
:102A700014C0E0912A18F0912B18E851F84E2081EB
:102A800080912A1890912B1801968F739927909313
:102A90002B1880932A182093CE00FF91EF919F91DD
:102AA0008F913F912F910F900BBE0F900FBE0F9003
:102AB0001F9018951F920F920FB60F9211240BB60C
:102AC0000F922F933F938F939F93EF93FF932091B8
:102AD000A0173091A1178091A2179091A3172817E2
:102AE000390731F48091D1008F7D8093D10014C0DB
:102AF000E091A217F091A317E05AF84E208180913F
:102B0000A2179091A31701968F7399279093A317FB
:102B10008093A2172093D600FF91EF919F918F9100
:102B20003F912F910F900BBE0F900FBE0F901F90F3
:102B300018951F920F920FB60F9211240BB60F9299
:102B40002F933F938F939F93EF93FF9320911817A9
:102B50003091191780911A1790911B172817390770
:102B600031F4809131018F7D8093310114C0E09167
:102B70001A17F0911B17E852F94E208180911A170D
:102B800090911B1701968F73992790931B17809331
:102B90001A1720933601FF91EF919F918F913F91EA
:102BA0002F910F900BBE0F900FBE0F901F90189596
:102BB000CF92DF92EF92FF920F931F93CF93DF9309
:102BC000EC016A017B014115514E6105710509F166
:102BD000EC89FD8981E090E008A002C0880F991F70
:102BE0000A94E2F7808360E079E08DE390E0A7014A
:102BF00096010E94AD3C89019A01015011092109F9
:102C000031093695279517950795980101151041BB
:102C1000A8F0EC89FD89108260E874E88EE190E00C
:102C2000A70196010E94AD3CDA01C9010197A109F3
:102C3000B109B695A795979587959C01E889F9897B
:102C40003083EA89FB89208319A2EE89FF894081BC
:102C500081E090E09C010C8C02C0220F331F0A948B
:102C6000E2F7242B2083EE89FF8940819C010D8CA3
:102C700002C0220F331F0A94E2F7242B2083EE892F
:102C8000FF8940819C010E8C02C0220F331F0A94E1
:102C9000E2F7242B2083EE89FF8920810F8C02C06C
:102CA000880F991F0A94E2F7809582238083DF9131
:102CB000CF911F910F91FF90EF90DF90CF900895EB
:102CC000CF92DF92EF92FF92E6EBF6E1138212824F
:102CD00088EEC82E83E0D82EE12CF12CC482D58258
:102CE000E682F78262ED72E07183608384EB98E1A3
:102CF0009587848780E798E19787868785EC90E0C1
:102D0000918B808B84EC90E0938B828B80EC90E0B5
:102D1000958B848B81EC90E0978B868B82EC90E096
:102D2000918F808F86EC90E0938F828F44E0448F68
:102D300033E0358F27E0268F95E0978F81E080A3E1
:102D4000E4E9F6E113821282C482D582E682F78238
:102D500071836083ACE2B8E1B587A487A8EEB7E1E0
:102D6000B787A687ADECB0E0B18BA08BACECB0E040
:102D7000B38BA28BA8ECB0E0B58BA48BA9ECB0E030
:102D8000B78BA68BAAECB0E0B18FA08FAEECB0E011
:102D9000B38FA28F448F358F268F978F80A3E2E762
:102DA000F6E113821282C482D582E682F7827183B1
:102DB0006083A4EAB7E1B587A487A0E6B7E1B78747
:102DC000A687A5EDB0E0B18BA08BA4EDB0E0B38BEE
:102DD000A28BA0EDB0E0B58BA48BA1EDB0E0B78BDA
:102DE000A68BA2EDB0E0B18FA08FA6EDB0E0B38FBF
:102DF000A28F448F358F268F978F80A3E0E5F6E171
:102E000013821282C482D582E682F7827183608344
:102E10006CE177E17587648768ED76E1778766878F
:102E200065E371E0718B608B64E371E0738B628B9F
:102E300060E371E0758B648B61E371E0778B668B87
:102E400062E371E0718F608F66E371E0738F628F70
:102E5000448F358F268F978F80A3FF90EF90DF9060
:102E6000CF9008954F925F926F927F92AF92BF92F0
:102E7000CF92DF92EF92FF920F931F93CF93DF9346
:102E8000CDB7DEB729013A019B01AC012419350900
:102E9000460957098A899B89AC89BD89BC01CD0146
:102EA0006A197B098C099D090E94753CA80197014C
:102EB00024193509460957090E94CF3CCA01B901B6
:102EC0006A0D7B1D8C1D9D1DDF91CF911F910F9170
:102ED000FF90EF90DF90CF90BF90AF907F906F907A
:102EE0005F904F9008950F931F93CF93DF93EC0162
:102EF000462F61E00E946B22882391F08E01045FCF
:102F00001F4F41E0BE01C8010E942128882351F0D3
:102F1000B801CE018A960E94471B91E081110AC038
:102F200090E008C040E0BE01C8010E94212888232B
:102F3000B9F3EECF892FDF91CF911F910F910895B3
:102F4000FC01DB0112968D919C91139793838283F0
:102F500084EF92E09183808314968C9114978483FC
:102F600015968C911597858316964D915D916D916F
:102F70007C91199746835783608771871A964D9184
:102F80005D916D917C911D9742875387648775870A
:102F90001E964D915D916D917C9151974687578713
:102FA000608B718B52968C915297828B53964D9178
:102FB0005D916D917C915697438B548B658B768B8D
:102FC00057964D915D916D917C915A97478B508F9B
:102FD000618F728F5B968D919C915C97948F838F9C
:102FE00008954F925F926F927F928F929F92AF92CD
:102FF000BF92CF92DF92EF92FF920F931F93CF93E6
:10300000DF93CDB7DEB7C754D1090FB6F894DEBF52
:103010000FBECDBF6C015A014901665D7F4F7E0135
:103020008EE1E80EF11CC7010E94A0171C821B82D2
:1030300084EF92E09A8389831E828501FE01319696
:103040003F0127016FE270E0C8010E94CA39009772
:10305000D9F1F80120812F3219F40F5F1F4FF2CF01
:10306000801B8D3008F08CE0E82EF12CA701B80110
:10307000CE01CB960E94D539EBE3F0E0EC0FFD1FBB
:10308000EE0DFF1D1082C3010E94C31D21E0AE01A1
:10309000455C5F4FB201C3010E94F71E811109C058
:1030A000F6011382128284EF92E09183808315826D
:1030B00014C00E0D1F1DC2010E94C31D942D852D2D
:1030C0002301692E782EBECF0A191B09F401118342
:1030D0000083B201C6010E94A017C601C95BDF4F81
:1030E0000FB6F894DEBF0FBECDBFDF91CF911F9119
:1030F0000F91FF90EF90DF90CF90BF90AF909F9097
:103100008F907F906F905F904F900895CF92DF9255
:10311000FF920F931F93CF93DF93CDB7DEB7C955BF
:10312000D1090FB6F894DEBF0FBECDBF6C018A0186
:10313000F22E9E01285A3F4FCE01CB960E94F117E6
:103140006A968EAD9FAD6A97080F191FF8018081AE
:1031500081110AC0BE01655C7F4FCE0101960E94BD
:10316000A0174EED52E03EC019A218A284EF92E0E3
:103170009F8F8E8F1BA221968FAD2197811104C046
:10318000C6010E94D91934C082502F2DA801823067
:1031900048F462E279E1CE014E960E94F71E811159
:1031A0000EC0EECFBE01655C7F4FCE014E960E94F1
:1031B000F71E882329F3CE01CB960E94C31D9F2DB5
:1031C000967041F049A95AA96BA97CA9CE014E96E7
:1031D0000E94E61CBE01625E7F4FCE0101960E94F6
:1031E000A017A801BE016F5F7F4FC6010E94A419FE
:1031F000C601C75ADF4F0FB6F894DEBF0FBECDBF72
:10320000DF91CF911F910F91FF90DF90CF900895A4
:10321000E8EFF8E1158216821186138682E090E0CD
:10322000A0E0B0E084879587A687B78713A215A68C
:1032300014A684EF92E093A782A717A60895CF93D0
:10324000DF931F92CDB7DEB76983DC01ED91FC916E
:103250000280F381E02D41E050E0BE016F5F7F4FBF
:1032600019950F90DF91CF910895CF93DF93EC01E3
:10327000898D9A8D009739F481E090E09B838A8351
:1032800080E090E00BC0FC01138212820E94E51FD7
:10329000E98DFA8D22813381232B71F7DF91CF9154
:1032A0000895FC01818D928D009711F00C947C1D86
:1032B0000895CF93DF931F92CDB7DEB741E050E082
:1032C000BE016F5F7F4F0E94981B019719F489819F
:1032D00090E002C08FEF9FEF0F90DF91CF910895A4
:1032E000FC01818D928D009711F00C9459198FEF8C
:1032F0009FEF08950F931F93CF93DF93FC01818D70
:10330000928D0097B9F0EF010E9459198C010F3F7F
:103310008FEF180791F0898D9A8DFC0142855385B6
:103320006485758541505109610971090E94E61C47
:10333000C80105C080E090E002C08FEF9FEFDF91F1
:10334000CF911F910F910895EF92FF920F931F93CA
:10335000CF93DF93EC017B018A011B821A8288EEF6
:1033600093E0A0E0B0E08C839D83AE83BF8384EEC6
:1033700092E0998388838DE190E00E945A389A8F79
:10338000898F009779F02DE1F701DC0101900D9212
:103390002A95E1F74CE050E0B801CE010C960E946E
:1033A000D539188EDF91CF911F910F91FF90EF903B
:1033B0000895FC011382128288EE93E0A0E0B0E051
:1033C00084839583A683B78384EE92E09183808380
:1033D000128E118E148608950895FC01818D928DB0
:1033E000009711F00C94981B80E090E00895FC0188
:1033F000818D928D009711F00C94E61C80E0089569
:10340000DC015996ED91FC915A97309729F062852D
:1034100073858485958508956FEF7FEFCB010895BF
:10342000DC015996ED91FC915A97309729F0638908
:10343000748985899689089560E070E0CB010895CC
:10344000CF92DF92EF92FF92CF93DF93FC01218D19
:10345000328D232BD9F0EC010E94101A6B017C01F4
:10346000CE010E94001AA7019601261B370B480BBC
:10347000590BDA01C901811530E89307A105B1059F
:1034800038F08FEF9FE7A0E0B0E002C080E090E06E
:10349000DF91CF91FF90EF90DF90CF900895CF9381
:1034A000DF93EC01898D9A8D009741F00E94C31D36
:1034B000898D9A8D0E94EF381A8E198EDF91CF91E7
:1034C0000895DC015996ED91FC915A97309721F0BF
:1034D00081E09581911101C080E00895CF93DF9341
:1034E000EC019C012A5F3F4F41E050E060E070E05A
:1034F0008B8D9C8D0E94B6268823A1F08F89988D94
:10350000A98DBA8D892B8A2B8B2B59F48E819F81A3
:10351000A885B9858F8B988FA98FBA8F8C81806889
:103520008C8381E0DF91CF910895CF92DF92EF926B
:10353000FF921F93CF93DF93EC010E946E1A8111CB
:1035400002C080E04AC0EB8DFC8DCE80DF80E88435
:10355000F98482E0C81AD108E108F108058404C0A2
:10356000CC0CDD1CEE1CFF1C0A94D2F786859785D7
:10357000A089B189C80ED91EEA1EFB1E148181E004
:10358000C81AD108E108F108112361F0C701B6019A
:10359000610F711D811D911D0E940525882389F2EF
:1035A0001150F2CFEB8DFC8D80E092E0A0E0B0E016
:1035B000058404C0880F991FAA1FBB1F0A94D2F765
:1035C0004B895C896D897E89840F951FA61FB71F63
:1035D0008B8B9C8BAD8BBE8B81E0DF91CF911F914C
:1035E000FF90EF90DF90CF900895CF93DF93EC01A1
:1035F000462F6E857F85888999890E94CA248823F1
:1036000041F08A8920E2829FC0011124865B964E98
:1036100002C080E090E0DF91CF910895FB019B0113
:10362000255F3F4F40E24193E217F307E1F7DC01EA
:1036300090E027E08D91882319F18E3219F0EAE1AC
:10364000F3E008C02A3009F198E02AE0F3CF319680
:103650003817D9F034913111FACF2917B0F03FED76
:10366000380F3E3590F431E0390FFB01E90FF11DC1
:103670009FE9980F9A3108F480528083932FDACF14
:1036800081E0FB019081903209F480E008950F936E
:103690001F93CF93DF93FC012581222311F080E05B
:1036A00042C08B01EC01FB0187898031B1F482E0DB
:1036B0008D831F8A188E198E1A8E808D918DA0E0B1
:1036C000B0E025E0880F991FAA1FBB1F2A95D1F7EC
:1036D0008B8B9C8BAD8BBE8B15C0803201F783E04A
:1036E0008D83FB01428D538D648D758D4F8B588F6B
:1036F000698F7A8F9E012D5E3F4FC8010E94AD25D4
:10370000882369F21C8F0B8F81E08C831E821F82BD
:10371000188619861A861B861C861D861E861F869D
:10372000188A198A1A8ADF91CF911F910F910895F3
:103730002F923F924F925F926F927F928F929F92C1
:10374000AF92BF92CF92DF92EF92FF920F931F93AF
:10375000CF93DF93EC015B014A018D81811103C09E
:103760008FEF9FEFD7C08C8180FFFACF4B885C88AA
:103770006D887E884A855B856C857D85C401A0E067
:10378000B0E093018201041B150B260B370B0817C1
:1037900019072A073B0718F44201841A950A2401E5
:1037A0001E0126E0220E311C4114510409F47EC092
:1037B0004A855B856C857D856A0181E0D822ED8133
:1037C0008A019B0189E036952795179507958A957B
:1037D000D1F78B8D9C8DE23061F4FC01828D938D4D
:1037E000A48DB58DBC01CD01600F711F821F931F89
:1037F0003FC0FC0174807A947022C114D104C9F4D2
:10380000711017C0452B462B472B49F48F89988D93
:10381000A98DBA8D8E839F83A887B9870AC04E81F0
:103820005F816885798591010E942925882309F4A3
:1038300097CFEB8DFC8D8E819F81A885B9850297EE
:10384000A109B109058404C0880F991FAA1FBB1FD5
:103850000A94D2F74685578560897189840F951F30
:10386000A61FB71FBC01CD01670D711D811D911DE4
:1038700020E032E02C193D0932012415350508F409
:1038800039012C8126FD04C06114F2E07F0679F530
:103890000091150210911602209117023091180222
:1038A000601771078207930719F421C0C40132C061
:1038B000750183019601AB01BC018091481990917B
:1038C00049190E94ED23882309F44ACFA60CB71C9E
:1038D0008A859B85AC85BD85860D971DA11DB11D73
:1038E0008A879B87AC87BD87461857085DCF40E025
:1038F0000E94CA24882309F433CFF601E65BF64E12
:10390000D501CF01860D971DE817F907F9F221912E
:103910002D93FACFDF91CF911F910F91FF90EF90F0
:10392000DF90CF90BF90AF909F908F907F906F90DF
:103930005F904F903F902F900895FF920F931F93A9
:10394000CF93DF931F92CDB7DEB7FC0125812230E4
:1039500018F480E090E033C08C01FC01428553856F
:103960006485758585E076956795579547958A9521
:10397000D1F7F42FFF70FF2E41E050E0BE016F5FE2
:103980007F4FC8010E94981B019719F4898190E02C
:1039900002C08FEF9FEF0196E1F2F80182859385D7
:1039A000A485B5854F96A11DB11D82879387A487F5
:1039B000B587F0E2FF9EC0011124865B964E0F9002
:1039C000DF91CF911F910F91FF9008958F929F9259
:1039D000AF92BF92CF92DF92EF92FF920F931F931D
:1039E000CF93DF93EC018D81811102C080E077C01D
:1039F0000B891C892D893E8904171507260737076F
:103A0000A8F36A017B01823029F4CA86DB86EC8642
:103A1000FD860DC0C114D104E104F10451F41E82ED
:103A20001F82188619861A861B861C861D8681E0D1
:103A300056C08A849B84AC84BD84EB8DFC8D258527
:103A400030E0275F3F4FB501A401415051096109A2
:103A50007109022E04C076956795579547950A948B
:103A6000D2F7D701C6010197A109B10904C0B695E3
:103A7000A795979587952A95D2F784179507A60756
:103A8000B70720F089288A288B2849F44F89588D58
:103A9000698D7A8D4E835F836887798704C0841B24
:103AA000950BA60BB70B4C015D018E010A5F1F4FF2
:103AB00081149104A104B10409F4A7CF4E815F8160
:103AC0006885798598018B8D9C8D0E94292591E0D0
:103AD000891A9108A108B1088111EACF87CFDF9137
:103AE000CF911F910F91FF90EF90DF90CF90BF90FB
:103AF000AF909F908F9008950F931F93CF93DF9374
:103B0000EC018D818823C9F18C8187FF30C061E091
:103B1000CE010E94F51A8C01892B79F18D818230BA
:103B200048F48B899C89AD89BE89F801848F958F73
:103B3000A68FB78F8F89988DA98DBA8DF801938F35
:103B4000828FB58BA48BE0914119F0914219309787
:103B500059F0B8016A5E7F4FC80148961995F8017F
:103B6000808D918D938B828B8C818F778C83DF916D
:103B7000CF911F910F910C948F2480E0DF91CF9112
:103B80001F910F910895CF93DF93EC010E947C1D4C
:103B9000882311F01D8281E0DF91CF9108954F922B
:103BA0005F926F927F928F929F92AF92BF92EF92AD
:103BB000FF920F931F93CF93DF9300D01F92CDB747
:103BC000DEB7FC0185818130E9F4848181FF1AC070
:103BD00083899489A589B68984179507A607B707AD
:103BE00088F0892B8A2B8B2B09F479C04A015B0161
:103BF0007F014284538464847584CF010E94E61C53
:103C0000811102C080E06CC0F701838D948D811416
:103C10009104A104B10471F44789508D618D728DB6
:103C20000E94CB27882371F3F701178A108E118E1B
:103C3000128E3AC0F70146815781608571859E01D9
:103C40002F5F3F4F0E9429258823E1F249815A8145
:103C50006B817C81F701838D948DFC012789203154
:103C600029F008EF1FEF2FEF3FE004C008EF1FEF30
:103C700020E030E04017510762077307A8F40E9464
:103C8000CB27882309F4BECFF70146815781608591
:103C900071850FEF1FEF2FEF3FE0838D948D0E9412
:103CA0001626882309F4AECFF701838A948AA58A61
:103CB000B68A848180688483C7010E947C1D882322
:103CC00009F4A0CFB501A401481459046A047B0487
:103CD00010F4B301A201C7010E94E61C01C081E0FB
:103CE0000F900F900F900F90DF91CF911F910F9138
:103CF000FF90EF90BF90AF909F908F907F906F90CC
:103D00005F904F9008951F93CF93DF93EC0180E273
:103D1000689FF00111249F01265B364ED9011B9646
:103D20009C91917129F0842F827411F080E05BC026
:103D3000142F6A8B8091150290911602A0911702A0
:103D4000B09118028E879F87A88BB98BE65BF64EE1
:103D50004489558960E070E0BA01552744274F8BAC
:103D6000588F698F7A8F828D938DA0E0B0E0482BB9
:103D7000592B6A2B7B2B4F8B588F698F7A8FD901E8
:103D80001B968C91887151F4848D958DA68DB78D7D
:103D90008B8B9C8BAD8BBE8B81E00DC0803131F65F
:103DA0009E012D5E3F4F8B8D9C8D0E94AD258823FB
:103DB00009F4BCCF84E08D83812F8F708C831E82A9
:103DC0001F82188619861A861B861C861D8616FF7A
:103DD00009C040E050E0BA01CE01DF91CF911F91C0
:103DE0000C94CF1D81E0DF91CF911F910895CF9268
:103DF000DF92EF92FF920F931F93CF93DF93CDB794
:103E0000DEB72C970FB6F894DEBF0FBECDBFFC0116
:103E100035813111C2C0D22E8B017C01BE016F5F92
:103E20007F4FCA010E940E1B882309F4B6C0F80117
:103E3000838D948DF701948F838FF80116821782FA
:103E400010861186128613861486158630E0F801D6
:103E500082859385A485B58543895489658976894A
:103E600084179507A607B70708F041C025E0B69567
:103E7000A795979587952A95D1F7F82FFF70CF2EA4
:103E8000C8013C870E949D1C3C85009709F485C0B1
:103E9000FC012081222309F484C0253E99F04BE0E7
:103EA00050E0BC01CE0101963C870E94BD393C85A3
:103EB000892B69F68D2D8073803309F46EC04D2DEA
:103EC0006C2D67C031116BC0F701C28A4091150299
:103ED0005091160260911702709118024687578719
:103EE000608B718BFC01808131E08111B0CF8D2D11
:103EF0008271823109F051C0332341F061E0C70182
:103F00000E94F51A8C01892B79F447C0F80185814C
:103F1000823009F442C0C8010E94951A8823E9F151
:103F2000F701128A0AE419E180E2F80111928A95F8
:103F3000E9F78BE0FE013196D80101900D928A9548
:103F4000E1F7E0914119F0914219309739F0B80149
:103F5000625F7F4FC8014096199509C081E298E2DF
:103F6000F801918B808B80E098E097878687F80135
:103F700080899189938B828B918F808F868597859D
:103F8000978B868B0E948F24882339F04D2DF70163
:103F90006289C7010E94831E09C080E007C031E02A
:103FA00056CF332309F490CF31E0A1CF2C960FB632
:103FB000F894DEBF0FBECDBFDF91CF911F910F915F
:103FC000FF90EF90DF90CF9008952F923F924F9205
:103FD0005F926F927F928F929F92AF92BF92CF9299
:103FE000DF92EF92FF920F931F93CF93DF9300D056
:103FF0001F92CDB7DEB78C016B013A01DC0115963B
:104000008C9115978130C9F414968C9181FF15C05D
:1040100082FF1DC0F80143895489658976898285AC
:104020009385A485B58584179507A607B70779F00A
:10403000C8010E94E61C81110AC081E090E0D8010D
:1040400013969C938E93129780E090E048C14301B1
:1040500084C0D8015B968D919C915C97FC01548043
:104060002FEF250D1A012B0139E056944794379410
:1040700027943A95D1F7522E52207A01F1E0FF228F
:10408000552009F476C080E092E08E199F09540112
:104090008815990508F45C01D8015B962D913C9137
:1040A0005C9716968D919D910D90BC91A02D0297D5
:1040B000A109B109F901058404C0880F991FAA1F3D
:1040C000BB1F0A94D2F74685578560897189840F92
:1040D000951FA61FB71F9C01AD01250D311D411D68
:1040E000511D19012A01A11432E0B30609F088C05C
:1040F0008091150290911602A0911702B0911802BA
:1041000082159305A405B50559F48FEF9FEFDC01E7
:104110008093150290931602A0931702B093180291
:104120009601B201A10180914819909149190E940C
:104130004124882309F481CF9EEFD91A8A189B085D
:10414000F80182859385A485B5858A0D9B1DA11DE7
:10415000B11D82879387A487B587D8011A964D91A0
:104160005D916D917C911D978114910409F071CF3F
:1041700087C0E114F10409F086CF16964D915D9148
:104180006D917C911997411551056105710559F49F
:1041900057968D919D910D90BC91A02D0097A105F2
:1041A000B10541F521C09E012F5F3F4F0E94292597
:1041B000882309F44ACF89819A81AB81BC81F801B7
:1041C000238D348DF9012789203129F048EF5FEFE5
:1041D0006FEF7FE004C048EF5FEF60E070E08417AE
:1041E0009507A607B70730F0C8010E946E1A811123
:1041F0004ACF23CFF80186839783A087B18743CF27
:10420000E114F10429F5D8011A964D915D916D9153
:104210007C911D9753968D919D910D90BC91A02DF1
:10422000481759076A077B0798F00E948F24882354
:1042300009F403CF20921502309216024092170221
:10424000509218028091471981608093471908C0E5
:1042500041E0C201B1010E94CA24882309F4EDCED5
:10426000D601F701E65BF64ECF018A0D9B1DE817DC
:10427000F90719F02D912193FACFCA0CDB1C5ECF00
:104280005396CD90DD90ED90FC90569714968C91BE
:10429000C416D506E606F70640F4F801438B548BA6
:1042A000658B768B806884830DC020914119309195
:1042B0004219232B39F06114710421F08068D80170
:1042C00014968C93F801848183FD02C0C30107C05A
:1042D000C8010E947C1D882309F4AFCEF7CF0F9050
:1042E0000F900F900F90DF91CF911F910F91FF9042
:1042F000EF90DF90CF90BF90AF909F908F907F9086
:104300006F905F904F903F902F900895CF93DF93E1
:104310001F92CDB7DEB7698341E050E0BE016F5F09
:104320007F4F0E94E51F0F90DF91CF9108958EBDC2
:104330000DB407FEFDCF08958FEF0E9497218EB533
:10434000089561E0FC0184810C94BB1160E0FC01E4
:1043500084810C94BB11CF93DF93FC018681882369
:10436000D1F08FEF8EBD4FEF878190859C012F5F3D
:104370003F4F308727838130924028F40DB407FEE9
:10438000FDCF4EBDF1CF0DB407FEFDCFEF01CF0144
:104390000E94A1211E82DF91CF910895673028F0FD
:1043A00026E1FC01258380E008958DB560FD02C003
:1043B000663011F48E7F01C081608DBD8CB58C7F1D
:1043C0008CBD9CB562FD02C080E001C082E06695B4
:1043D0006170692B862B8CBD81E008950F931F932C
:1043E000CF93DF93EB010E944F108B010E949C2121
:1043F0008F3F49F00E944F10601B710B6C177D07B7
:10440000A8F380E001C081E0DF91CF911F910F916F
:104410000895CF92DF92FF920F931F93CF93DF9374
:1044200000D01F92CDB7DEB76C01F62E29833A83F8
:104430004B835C830E94AB21C6010E94A6216CE2E3
:1044400071E0C6010E94EE218F2D80640E949721A9
:1044500008E110E05C814B813A812981DA01C901D0
:10446000002E04C0B695A795979587950A94D2F724
:1044700029833A834B835C830E949721085011095A
:1044800029813A814B815C81083F8FEF180731F712
:10449000FF2029F0E8E0FE1204C087E803C085E9A8
:1044A00001C08FEF0E94972110E00E949C21F6012D
:1044B000828787FF04C01F3F11F01F5FF6CF0F9068
:1044C0000F900F900F90DF91CF911F910F91FF9060
:1044D000DF90CF9008958F929F92AF92BF92EF920C
:1044E000FF920F931F93CF93DF93EC01E62E1B8671
:1044F00019861E821D824C830E944F108B0161E041
:104500008C810E947F11CE010E94A12160E082E394
:104510000E947F1161E083E30E947F1161E084E3E8
:104520000E947F1161E085E30E947F1161E085E3D5
:104530000E94BB1183E58CBD8DB58E7F8DBD2AE0B9
:10454000F22E8FEF0E949721FA94F110FACFCE014C
:104550000E94A62120E030E0A90160E0CE010E9487
:104560000922F82E8A8781E0F81649F00E944F1040
:10457000601B710B613D774068F381E04CC02AEA13
:1045800031E040E050E068E0CE010E94092282FF65
:1045900002C0FB860EC094E0F92E0E949C218A87FF
:1045A000FA94F110FACF8A3A11F082E034C082E036
:1045B0008B878B85823021F0812C912C540105C092
:1045C000812C912CA12C80E4B82E20E030E0A901B0
:1045D00067E3CE010E940922A501940169E2CE01A0
:1045E0000E9409228A87882349F00E944F10601B8D
:1045F000710B613D774048F388E00DC08B858230B8
:1046000039F520E030E0A9016AE3CE010E940922D9
:10461000882389F086E08D83CE010E94A12180E06D
:10462000DF91CF911F910F91FF90EF90BF90AF90CE
:104630009F908F9008950E949C21807C803C11F473
:1046400083E08B870E949C210E949C210E949C21D8
:10465000CE010E94A1216E2DCE01DF91CF911F913D
:104660000F91FF90EF90BF90AF909F908F900C9420
:10467000CE210F931F93CF93DF93EC010E944F1035
:104680008B010E949C218A878F3F49F40E944F1022
:10469000601B710B6D327140A0F38FE003C08E3F41
:1046A00039F08DE08D83CE010E94A12180E001C010
:1046B00081E0DF91CF911F910F910895CF92DF920A
:1046C000EF92FF920F931F93CF93DF93EC01690159
:1046D000C801820F931F8130924008F06FC08E8115
:1046E000882371F088819981AA81BB814817590775
:1046F0006A077B0729F48F819885C816D90618F5B3
:10470000488359836A837B838B85833039F089E0C2
:10471000440F551F661F771F8A95D1F79A01AB0189
:1047200061E1CE010E940922882319F083E08D8384
:1047300045C0CE010E943923882309F43FC0188662
:104740001F8281E08E838FEF8EBD2FEF8F81988542
:104750008C159D0550F40DB407FEFDCF2EBD8F8145
:104760009885019698878F83F1CFC8010197F7014B
:104770004FEF9F012E193F092817390738F40DB460
:1047800007FEFDCF2EB521934EBDF3CF0DB407FE2E
:10479000FDCF2EB5F701E80FF91F20838F81988593
:1047A000080F191F18870F838985882319F00115B1
:1047B000124048F0CE010E94AB2105C0CE010E94FC
:1047C000A12180E001C081E0DF91CF911F910F9185
:1047D000FF90EF90DF90CF900895EF92FF920F93AC
:1047E0001F930115110519F00E945E2301C081E09D
:1047F0001F910F91FF90EF900895EF92FF920F930A
:104800001F93790100E012E020E030E00E945E2377
:104810001F910F91FF90EF900895CF93DF93EC01DC
:104820006EBD20E030E00DB407FEFDCFFA01E20FCF
:10483000F31F80818EBD0DB407FEFDCF81818EBD3B
:104840002E5F3F4F211582E0380769F70DB407FE50
:10485000FDCF8FEF0E9497218FEF0E9497210E943A
:104860009C218A87982F9F71953039F081E18D8343
:10487000CE010E94A12180E001C081E0DF91CF91B3
:1048800008950F931F93CF93DF93EC018901411596
:1048900051056105710511F482E132C08B858330C9
:1048A00039F089E0440F551F661F771F8A95D1F7AD
:1048B0009A01AB0168E1CE010E940922882311F020
:1048C00084E01EC0A8016EEFCE010E940D24882353
:1048D000C1F068E572E0CE010E94EE21811102C0B4
:1048E00085E10EC020E030E0A9016DE0CE010E941C
:1048F0000922811104C00E949C21882339F084E19F
:104900008D83CE010E94A12180E004C0CE010E94CF
:10491000A12181E0DF91CF911F910F9108958091A6
:1049200047198823A9F14091150250911602609110
:104930001702709118022AE439E180914819909188
:1049400049190E944124811102C080E008954091DC
:1049500043195091441960914519709146194115B8
:1049600051056105710591F02AE439E180914819FA
:10497000909149190E944124882339F310924319D8
:104980001092441910924519109246191092471925
:1049900081E00895CF92DF92EF92FF92CF936B0167
:1049A0007C01C42F8091150290911602A0911702EC
:1049B000B09118028C159D05AE05BF05D1F00E947F
:1049C0008F24811102C080E01AC02AE439E1B701C6
:1049D000A60180914819909149190E94FD238823CE
:1049E00091F3C0921502D0921602E0921702F09253
:1049F000180280914719C82BC093471981E0CF91C5
:104A0000FF90EF90DF90CF900895CF92DF92EF92DA
:104A1000FF926B017C010E948F248823A9F0EAE4B5
:104A2000F9E111928BE1EA34F807D9F7C092150247
:104A3000D0921602E0921702F09218028091471964
:104A400081608093471981E0FF90EF90DF90CF90D5
:104A500008958F929F92AF92BF92CF92DF92EF9282
:104A6000FF920F931F93CF93DF93FC018185928573
:104A7000A385B4850196A11DB11D84179507A607CE
:104A8000B70710F480E05CC083899489A589B68952
:104A9000C789C03129F4852E962EA72EBB2409C0C4
:104AA0004A015B01C7E0B694A79497948794CA958E
:104AB000D1F7E9016A017B018F01BC01CD01680DCD
:104AC000791D8A1D9B1D8090150290901602A09062
:104AD0001702B0901802681579058A059B0599F4AC
:104AE000F80187898031A9F4B701A6015527662707
:104AF0007727440F551FFA01E65BF64E80819181BE
:104B0000A0E0B0E018C040E00E94CA248111E8CFC4
:104B1000B9CFB701A6014F77552766277727440FEE
:104B2000551F440F551FFA01E65BF64E80819181B7
:104B3000A281B381BF7088839983AA83BB8381E0FC
:104B4000DF91CF911F910F91FF90EF90DF90CF9069
:104B5000BF90AF909F908F9008954F925F926F9209
:104B60007F92AF92BF92CF92DF92EF92FF920F931C
:104B70001F93CF93DF9300D01F92CDB7DEB78C0188
:104B800049835A836B837C835901C12CD12C7601D4
:104B9000412C82E0582E612C712C49815A816B8105
:104BA0007C819E012F5F3F4FC8010E9429258823E9
:104BB00051F1D301C201F801058404C0880F991F87
:104BC000AA1FBB1F0A94D2F7C80ED91EEA1EFB1EED
:104BD00049815A816B817C818789803129F088EFF6
:104BE0009FEFAFEFBFE004C088EF9FEFA0E0B0E021
:104BF000481759076A077B0780F2F501C082D18206
:104C0000E282F38281E00F900F900F900F90DF917E
:104C1000CF911F910F91FF90EF90DF90CF90BF90B9
:104C2000AF907F906F905F904F9008954F925F92FA
:104C30006F927F928F929F92AF92BF92CF92DF92AC
:104C4000EF92FF920F931F93CF93DF93EC016A01D2
:104C50007B0128013901423051056105710510F4CD
:104C600080E073C089859A85AB85BC850196A11DBE
:104C7000B11D84179507A607B70790F38B889C880A
:104C8000AD88BE888F89803129F4BB27AF2D9E2D3A
:104C90008D2D09C0DB01CA0147E0B695A795979510
:104CA00087954A95D1F7880E991EAA1EBB1E809142
:104CB000150290911602A0911702B0911802881661
:104CC0009906AA06BB0679F48F898031A1F4DD2408
:104CD000EE24FF24C601880F991FFC01E65BF64E07
:104CE0005182408219C040E0C501B4010E94CA242B
:104CF0008111EACFB5CFE894C7F8DD24EE24FF2474
:104D0000C601880F991F880F991FFC01E65BF64EBC
:104D100040825182628273828091471981608093C0
:104D200047198A89823080F08D819E81AF81B88554
:104D3000880E991EAA1EBB1E809243199092441998
:104D4000A0924519B092461981E0DF91CF911F9151
:104D50000F91FF90EF90DF90CF90BF90AF909F901A
:104D60008F907F906F905F904F9008952F923F9219
:104D70004F925F926F927F929F92AF92BF92CF922B
:104D8000DF92EF92FF920F931F93CF93DF93CDB7F4
:104D9000DEB760970FB6F894DEBF0FBECDBF5C01E3
:104DA00049875A876B877C871901D901CD90DD909F
:104DB000ED90FC90C114D104E104F10431F0BFEF97
:104DC000CB1ADB0AEB0AFB0A10C0FC01C080D180C1
:104DD000E280F3809924939409851A852B853C857C
:104DE000013011052105310509F0912CF50181856E
:104DF0009285A385B4858C019D010F5F1F4F2F4FB6
:104E00003F4F0D871E872F87388B260137011D8264
:104E10001E821F821886F50181859285A385B4853F
:104E20000D811E812F813885081719072A073B0736
:104E300008F056C02D853E854F85588924153505C7
:104E40004605570550F482E0482E512C612C712CF8
:104E500092E0C92ED12CE12CF12C9E012F5F3F4F07
:104E6000B301A201C5010E9429258823C9F1498106
:104E70005A816B817C81D301C2010196A11DB11DB4
:104E8000452B462B472B19F06C017D010FC0AC015F
:104E9000BD014C195D096E097F0909851A852B85AD
:104EA0003C85401751076207730779F02D813E81D9
:104EB0004F8158852F5F3F4F4F4F5F4F2D833E836C
:104EC0004F8358872C013D01A6CF0FEF1FEF2FEF27
:104ED0003FE0B301A201C5010E941626811118C04E
:104EE00080E041C0D301C2010197A109B1098D83BE
:104EF0009E83AF83B88793018201AC01BD01C501D8
:104F00000E941626882361F34D805E806F8078842E
:104F1000C414D504E604F70428F3D1014D915D9142
:104F20006D917C91411551056105710599F4F1016F
:104F3000C082D182E282F3829920A1F0FFEFCF1AE2
:104F4000DF0AEF0AFF0AD501CD92DD92ED92FC92C5
:104F5000139708C097018601C5010E94162681118A
:104F6000E6CFBECF81E060960FB6F894DEBF0FBEED
:104F7000CDBFDF91CF911F910F91FF90EF90DF9008
:104F8000CF90BF90AF909F907F906F905F904F9029
:104F90003F902F900895AF92BF92CF92DF92EF9201
:104FA000FF920F931F93CF93DF9300D01F92CDB743
:104FB000DEB75C016A017B0182E090E0A0E0B0E036
:104FC000F50180839183A283B3839E012F5F3F4FBE
:104FD000B701A601C5010E942925882311F100E02F
:104FE00010E09801B701A601C5010E94162688238A
:104FF000C1F0C980DA80EB80FC80F50187898031BF
:1050000029F088EF9FEFAFEFBFE004C088EF9FEF7C
:10501000A0E0B0E0C816D906EA06FB06B0F281E0CF
:1050200001C080E00F900F900F900F90DF91CF9113
:105030001F910F91FF90EF90DF90CF90BF90AF90B6
:1050400008958F929F92AF92BF92CF92DF92EF928C
:10505000FF920F931F93CF93DF93EC01142F709364
:10506000491960934819442369F1453010F080E0F4
:10507000F2C040E060E070E0CB010E94CA248823C7
:10508000B1F320E1129FA0011124465C564EFA01B3
:10509000E254FE4F80818F7751F73C968081918159
:1050A000A281B38184369105A105B10500F334973F
:1050B000C080D180E280F380C114D104E104F10406
:1050C00021F4D5CFC12CD12C760140E0C701B60127
:1050D0000E94CA24882359F280915519909156193B
:1050E0008115924021F690915A19992309F4BFCF66
:1050F0002091581930915919232B09F4B8CF809178
:105100005719882309F4B3CF9A8B8C831D8690E0BE
:1051100061E070E02D85E22FAB01022E02C0440F4A
:10512000551F0A94E2F78417950731F031E0320FEA
:105130003D87283078F39BCF209160193091611919
:105140002115310519F040E050E008C020916E199A
:1051500030916F1940917019509171192D833E83D0
:105160004F835887809158199091591946015701DA
:10517000880E991EA11CB11C8B8A9C8AAD8ABE8A9E
:1051800000915B1910915C19198F088FA0915A1921
:10519000B0E00E94143D860E971EA81EB91E8A8E8E
:1051A0009B8EAC8EBD8E85E0000F111F8A95E1F7B6
:1051B00001501E4F012F11270695800E911EA11C34
:1051C000B11C8E869F86A88AB98A20915D1930917C
:1051D0005E192115310521F0A90160E070E008C0D9
:1051E00040916A1950916B1960916C1970916D1909
:1051F000D701C60188199909AA09BB09840F951F0F
:10520000A61FB71F04C0B695A79597958795EA95F1
:10521000D2F789879A87AB87BC87853F2FE09207B3
:10522000A105B10510F48CE014C0853F9F4FA10586
:10523000B10510F480E10DC0809176199091771935
:10524000A0917819B09179198A8F9B8FAC8FBD8FFF
:1052500080E28F8B81E0DF91CF911F910F91FF90C2
:10526000EF90DF90CF90BF90AF909F908F90089578
:105270002F923F924F925F926F927F928F929F9266
:10528000AF92BF92CF92DF92EF92FF920F931F9354
:10529000CF93DF9300D0CDB7DEB74C017B836A8319
:1052A0006A01590117019801241B350B37FF03C010
:1052B000319521953109C5014A815B81841B950B8C
:1052C00097FF03C091958195910951E05983821709
:1052D000930714F019820BC09A2D8B2D5801092FBA
:1052E000182F9A818B81DB82CA82C92ED82E8A819F
:1052F0009B81A816B9065CF49C2D8D2D6801092FA1
:10530000182F9A818B81BB82AA82A92EB82E2501E3
:10531000AA81BB814A1A5B0A38016C187D0877FEA6
:1053200003C0719461947108720157FE03C0BFEF0E
:10533000EB1AFB0AF594E794C016D1061CF00FEFA8
:105340001FEF1FC001E010E01CC0D401ED91FC91E3
:10535000B9810084F185E02D9101BB23C1F04A8120
:105360005B81B601C4011995E618F708F7FE04C081
:10537000C00ED11EE40CF51CEA81FB813196FB8343
:10538000EA834A815B81A416B506FCF604C0A60137
:105390006A817B81E7CF0F900F900F90DF91CF91C3
:1053A0001F910F91FF90EF90DF90CF90BF90AF9043
:1053B0009F908F907F906F905F904F903F902F9035
:1053C00008950895DC01ED91FC910480F581E02DB4
:1053D00019940F931F93DC01ED91FC91008CF18DDA
:1053E000E02D19951F910F9108950F931F93DC01E4
:1053F000ED91FC91028CF38DE02D19951F910F9189
:105400000895EF92FF920F931F93DC01ED91FC91B1
:10541000048CF58DE02D19951F910F91FF90EF9061
:1054200008950895AF92BF92CF92DF92EF92FF92CC
:105430000F931F93CF93DF9300D01F92CDB7DEB7AA
:105440005C016901DC01ED91FC910680F781E02DA2
:105450004B835C8369837A831995D501ED91FC9127
:105460004B815C81C40ED51EB1E0CB1AD1080088F7
:10547000F189E02D7801860169817A819B01C5015E
:105480001995D501ED91FC910288F389E02DC501B4
:105490000F900F900F900F90DF91CF911F910F9170
:1054A000FF90EF90DF90CF90BF90AF901994AF92A4
:1054B000BF92CF92DF92EF92FF920F931F93CF9301
:1054C000DF9300D01F92CDB7DEB75C016901DC012C
:1054D000ED91FC910680F781E02D4B835C8369831D
:1054E0007A831995D501ED91FC9169817A819B01AF
:1054F0002C0D3D1D215031090088F189E02D7801E6
:105500004B815C818A01C5011995D501ED91FC9112
:105510000288F389E02DC5010F900F900F900F9036
:10552000DF91CF911F910F91FF90EF90DF90CF907F
:10553000BF90AF9019944F925F926F927F928F922B
:105540009F92AF92BF92CF92DF92EF92FF920F9312
:105550001F93CF93DF931F921F92CDB7DEB76C01DD
:105560005A0139014801DC01ED91FC910680F78177
:10557000E02D69837A8319956981462E7A81572EA9
:10558000640C751CD601ED91FC91461457046CF423
:105590000484F585E02D87019401A501B201C601BF
:1055A0001995BFEF4B1A5B0AEDCF0288F389E02D06
:1055B000C6010F900F90DF91CF911F910F91FF9037
:1055C000EF90DF90CF90BF90AF909F908F907F90A3
:1055D0006F905F904F901994EF92FF920F931F93EB
:1055E000DC01ED91FC9111971A960D911C911B977E
:1055F00018962D913C911997048CF58DE02D7B0127
:1056000040E050E060E070E019951F910F91FF902D
:10561000EF900895CF92DF92EF92FF920F931F9336
:10562000CF93DF9300D000D0CDB7DEB76C01DC01A3
:10563000ED91FC916217730789F4041715072CF498
:10564000942F852FA801092F182F041B150B9801E3
:105650002F5F3F4F008CF18DE02D12C04017510796
:1056600009F5261737072CF4962F872FB901292F14
:10567000382F261B370B2F5F3F4F028CF38DE02D09
:105680008701C601199526960FB6F894DEBF0FBEA6
:10569000CDBFDF91CF911F910F91FF90EF90DF90E1
:1056A000CF9008950680F781E02D2D833E834B83B4
:1056B0005C8369837A831995D601ED91FC9100880A
:1056C000F189E02D2D813E814B815C8169817A8158
:1056D000C6011995D601ED91FC910288F389E02D60
:1056E000C60126960FB6F894DEBF0FBECDBFDF9180
:1056F000CF911F910F91FF90EF90DF90CF90199471
:105700006F927F928F929F92AF92BF92CF92DF92D1
:10571000EF92FF920F931F93CF93DF93EC014B0116
:105720005A0169013801E881F9810680F781E02D8D
:105730001995E881F9810684F785E02D87019601A6
:10574000A501B401CE011995E881F981A501460DA5
:10575000571D415051090684F785E02D9601B4018B
:10576000CE011995E881F9810484F585E02D930136
:10577000A501B401CE011995E881F981C80CD91CA5
:10578000B601615071090484F585E02D9301A501EE
:10579000CE011995E881F9810288F389E02DCE01C7
:1057A000DF91CF911F910F91FF90EF90DF90CF90FD
:1057B000BF90AF909F908F907F906F9019940895B5
:1057C000FC016370658B848195812681378161300E
:1057D00039F0633029F091878087338722870895D5
:1057E00031872087938782870895FC011382128274
:1057F0008CEF92E091838083758364835783468323
:105800007187608753874287158A158614861786A5
:10581000168681E0848B2FEF3FEF338B228B318B09
:10582000208B868B178A118E108E08952F923F92AF
:105830004F925F926F927F928F929F92AF92BF92A0
:10584000CF92DF92EF92FF920F931F93CF93DF934C
:10585000CDB7DEB728970FB6F894DEBF0FBECDBF29
:105860005C013B014A0138872F83FC82EB8281E097
:1058700090E02C01421A530AC90191958195910932
:105880009C01220F331F3A832983170133E0230E33
:10589000311CEE24E394F12C802F81708D830270F3
:1058A0000E83C7010197EF81F8858E179F070CF0D3
:1058B00078C057FC0CC0AF81B8851197B887AF830B
:1058C000E981FA813296FA83E9834E0E5F1EC701A1
:1058D000880F991F0196480E591EFD81FF2359F12B
:1058E000D501ED91FC912F813885220F331F2F5F59
:1058F0003F4F8B819C81280F391F0484F585E02D53
:105900008601A401AF81B8854A1B5B0BB701660D08
:10591000771DC5011995D501ED91FC910484F5859C
:10592000E02D9101A4014E195F096F817885660D04
:10593000771DC5011995BE81BB2361F1D501ED919C
:10594000FC912F813885220F331F2F5F3F4F8B81B2
:105950009C81280F391F0484F585E02D8601A40160
:10596000AF81B8854A1B5B0BB3016E197F09C50176
:105970001995D501ED91FC910484F585E02D9101F7
:10598000A4014E195F09B3018F819885681B790BBB
:10599000C50119959FEFE91AF90AA2E02A0E311CF8
:1059A00080CF28960FB6F894DEBF0FBECDBFDF9133
:1059B000CF911F910F91FF90EF90DF90CF90BF900C
:1059C000AF909F908F907F906F905F904F903F909F
:1059D0002F9008956F927F928F929F92AF92BF9275
:1059E000CF92DF92EF92FF920F931F93CF93DF93AB
:1059F000EC014B013A0159016801E881F981068007
:105A0000F781E02D1995E881F9819501220F331F67
:105A10002F5F3F4FA3014A195B090484F585E02DF0
:105A2000B401CE011995E12CF12C03E09501A301FD
:105A3000B401CE010E94162CE881F9810288F38915
:105A4000E02DCE01DF91CF911F910F91FF90EF904C
:105A5000DF90CF90BF90AF909F908F907F906F908E
:105A600019942F923F924F925F926F927F928F92F2
:105A70009F92AF92BF92CF92DF92EF92FF920F93DD
:105A80001F93CF93DF93CDB7DEB76C970FB6F89423
:105A9000DEBF0FBECDBF9C8F8B8F5B011A011F83B2
:105AA0000E833701C982DC0158964D915C9159975C
:105AB0004115510509F0E5C018968D919C911997F3
:105AC000681779070CF0CAC11A968D919C911B97A3
:105AD000281639060CF0C2C18C2C912CFB0136E043
